:100000000C945C000C947B000C947B000C947B00A3
:100010000C947B000C947B000C947B000C947B0074
:100020000C947B000C947B000C947B000C947B0064
:100030000C947B000C94E8000C947B000C947B00E7
:100040000C947B000C947B000C947B000C947B0044
:100050000C947B000C947B000C947B000C947B0034
:100060000C947B000C947B000C947B000C947B0024
:100070000C947B000C947B000C947B000C947B0014
:100080000C947B000C947B000C947B0094019B01EE
:10009000A201C801EE011302B301D901FF0124023C
:1000A00035025B02610267026D02730279028B0204
:1000B0008B028B028B027F0211241FBECFEFD0E494
:1000C000DEBFCDBF11E0A0E0B1E0EEEDF5E000E075
:1000D0000BBF02C007900D92A231B107D9F721E002
:1000E000A2E1B1E001C01D92A931B207E1F70E947F
:1000F00091020C94ED020C940000CF93DF9300D09A
:100100001F92CDB7DEB789837B836A8389818A306A
:1001100031F48A819B81BC018DE00E947D0080ECDE
:1001200090E0FC018081882F90E080729927892BD4
:10013000B1F386EC90E02981FC01208380E090E01F
:100140000F900F900F90DF91CF910895CF93DF9391
:10015000CDB7DEB781E890E02BE0FC01208388E892
:1001600090E02DE730E0FC01318320838FE690E0C2
:1001700022E0FC01208384E890E0FC0111821082DF
:1001800080910E0190910F01A0911001B091110189
:100190008093130190931401A0931501B09316015D
:1001A0008FE590E02FE530E0F90120812068FC0127
:1001B00020830000DF91CF910895CF93DF93CDB7D7
:1001C000DEB781E0809312010000DF91CF910895A6
:1001D0001F920F9200905F000F92112400905B001D
:1001E0000F922F933F934F935F936F937F938F93D0
:1001F0009F93AF93BF93EF93FF93CF93DF93CDB7CD
:10020000DEB78091130190911401A0911501B09176
:1002100016010197A109B10980931301909314016C
:10022000A0931501B09316018091130190911401D0
:10023000A0911501B0911601892B8A2B8B2B91F47B
:100240000E94DD0080910E0190910F01A09110019C
:10025000B09111018093130190931401A0931501A3
:10026000B09316010000DF91CF91FF91EF91BF9104
:10027000AF919F918F917F916F915F914F913F913E
:100280002F910F9000925B000F9000925F000F90F3
:100290001F901895CF93DF9300D000D0CDB7DEB775
:1002A00069837A838B839C8389819A81AB81BC81AA
:1002B00080930E0190930F01A0931001B093110150
:1002C00080910E0190910F01A0911001B091110148
:1002D0008093130190931401A0931501B09316011C
:1002E00000000F900F900F900F90DF91CF91089525
:1002F000CF93DF931F92CDB7DEB71982809117019C
:1003000090911801CC01A0E0B0E040E050E02AE07C
:1003100030E0841B950B2817390708F4ADC08A5BC1
:100320009F4FFC010C94E40281E090E0909318014F
:1003300080931701ABC082E090E090931801809306
:100340001701A4C08981882339F086E090E090935A
:100350001801809317019AC083E090E090931801F0
:100360008093170193C08981882339F086E090E05B
:10037000909318018093170184C08981882309F024
:1003800080C08AE090E0909318018093170179C0B3
:100390008981882339F087E090E090931801809359
:1003A000170174C084E090E09093180180931701C6
:1003B0006DC08981882339F087E090E0909318011F
:1003C0008093170160C08981882309F05CC08AE0AE
:1003D00090E0909318018093170155C0898188237C
:1003E00039F088E090E090931801809317014EC097
:1003F00085E090E0909318018093170147C08981B0
:10040000882339F088E090E09093180180931701D9
:100410003CC089818823C9F58AE090E09093180157
:100420008093170132C08981882339F089E090E0F8
:10043000909318018093170129C082E090E0909377
:1004400018018093170122C08981882339F089E03F
:1004500090E0909318018093170118C082E090E01B
:10046000909318018093170111C081E090E0909360
:100470001801809317010AC01092180110921701F9
:1004800005C0000003C0000001C0000080911701FA
:1004900090911801CC01A0E0B0E040E050E02AE0EB
:1004A00030E0841B950B2817390778F18F5A9F4F3E
:1004B000FC010C94E40285E290E021E0FC01208341
:1004C0002BC085E290E021E0FC01208325C085E27D
:1004D00090E021E0FC0120831FC085E290E022E053
:1004E000FC01208319C085E290E024E0FC01208318
:1004F00013C085E290E022E0FC0120830DC085E27C
:1005000090E021E0FC01208307C085E290E021E03B
:10051000FC01208301C0000000000F90DF91CF910B
:100520000895CF93DF9300D0CDB7DEB781E290E09E
:10053000FC01108282E290E02FEFFC01208384E234
:1005400090E02FEFFC01208385E290E0FC01108217
:1005500064E670E080E090E00E944A010E94A600FC
:1005600019821A8280E290E0FC018081882F90E05D
:100570008170992721E0892B09F020E02A838A8164
:10058000882339F08AE090E0909318018093170156
:1005900010C029818BEA289F812D1124982F9695D0
:1005A000892F880F890F922F981B992311F40E948D
:1005B00078010000809112018823E1F389818F5F27
:1005C000898310921201CECFEE0FFF1F0024001C72
:0E05D0000BBE0790F691E02D0994F894FFCF32
:1005DE0000000002000000007D000000000001008D
:0205EE0000000B
:00000001FF
