:100000000C9458000C9477000C9477000C947700B3
:100010000C9477000C9477000C9477000C94770084
:100020000C9477000C9477000C9477000C94770074
:100030000C9477000C94E4000C9477000C947700F7
:100040000C9477000C9477000C9477000C94770054
:100050000C9477000C9477000C9477000C94770044
:100060000C9477000C9477000C9477000C94770034
:100070000C9477000C9477000C9477000C94770024
:100080000C9477000C9477000C9477008E01950106
:100090009C01D1010302B101E301180236025C02A6
:1000A000620268026E0274028602860286027A0288
:1000B00011241FBECFEFD0E4DEBFCDBF11E0A0E022
:1000C000B1E0ECECF5E000E00BBF02C007900D9250
:1000D000A231B107D9F721E0A2E1B1E001C01D9240
:1000E000AB31B207E1F70E948B020C94E4020C944E
:1000F0000000CF93DF9300D01F92CDB7DEB7898386
:100100007B836A8389818A3031F48A819B81BC0137
:100110008DE00E94790080EC90E0FC018081882FC6
:1001200090E080729927892BB1F386EC90E02981C9
:10013000FC01208380E090E00F900F900F90DF9102
:10014000CF910895CF93DF93CDB7DEB781E890E0EC
:100150002BE0FC01208388E890E02DE730E0FC01F3
:10016000318320838FE690E022E0FC01208384E845
:1001700090E0FC011182108280910E0190910F019C
:10018000A0911001B091110180931301909314017B
:10019000A0931501B09316018FE590E02FE530E0B4
:1001A000F90120812068FC0120830000DF91CF91BC
:1001B0000895CF93DF93CDB7DEB781E0809312012E
:1001C0000000DF91CF9108951F920F9200905F0081
:1001D0000F92112400905B000F922F933F934F9347
:1001E0005F936F937F938F939F93AF93BF93EF939F
:1001F000FF93CF93DF93CDB7DEB78091130190913A
:100200001401A0911501B09116010197A109B1093E
:100210008093130190931401A0931501B0931601DC
:100220008091130190911401A0911501B0911601D4
:10023000892B8A2B8B2B91F40E94D90080910E017F
:1002400090910F01A0911001B091110180931301C1
:1002500090931401A0931501B09316010000DF9153
:10026000CF91FF91EF91BF91AF919F918F917F912E
:100270006F915F914F913F912F910F9000925B0092
:100280000F9000925F000F901F901895CF93DF930F
:1002900000D000D0CDB7DEB769837A838B839C838F
:1002A00089819A81AB81BC8180930E0190930F016B
:1002B000A0931001B093110180910E0190910F0154
:1002C000A0911001B091110180931301909314013A
:1002D000A0931501B093160100000F900F900F909E
:1002E0000F90DF91CF910895CF93DF93CDB7DEB715
:1002F0008091180190911901CC01A0E0B0E040E09C
:1003000050E028E030E0841B950B2817390708F4EB
:10031000B4C08A5B9F4FFC010C94DB0281E090E04B
:100320009093190180931801B2C082E090E09093FD
:10033000190180931801ABC080911701882351F0F7
:1003400081E080931A0185E090E0909319018093F9
:1003500018019DC083E090E09093190180931801EB
:1003600096C080911701882321F480911A01882377
:1003700039F485E090E0909319018093180182C0D0
:1003800080911701882309F07DC080911A0188238C
:1003900009F478C088E090E09093190180931801E7
:1003A00071C080911701882339F086E090E0909326
:1003B0001901809318016BC084E090E090931901BB
:1003C0008093180164C080911701882321F48091E3
:1003D0001A01823039F086E090E090931901809301
:1003E000180152C080911701882309F04DC08091F7
:1003F0001A01823009F048C088E090E0909319011A
:100400008093180141C080911701882351F083E047
:1004100080931A0187E090E090931901809318016E
:1004200036C082E090E090931901809318012FC0AC
:1004300080911701882321F480911A01833039F0CB
:1004400087E090E090931901809318011FC080917C
:1004500017018823D9F480911A018330B9F488E018
:1004600090E0909319018093180110C081E090E012
:1004700090931901809318010AC0109219011092EB
:10048000180105C0000003C0000001C000008091F9
:10049000180190911901CC01A0E0B0E040E050E0DB
:1004A00028E030E0841B950B2817390748F1815B61
:1004B0009F4FFC010C94DB0285E290E021E0FC01FF
:1004C000208325C085E290E021E0FC0120831FC04D
:1004D00085E290E021E0FC01208319C085E290E0F4
:1004E00022E0FC01208313C085E290E024E0FC01BF
:1004F00020830DC085E290E027E0FC01208307C047
:1005000085E290E021E0FC01208301C000000000B2
:10051000DF91CF910895CF93DF931F92CDB7DEB7D0
:1005200081E290E0FC01108282E290E02FEFFC017A
:10053000208384E290E02FEFFC01208385E290E0AD
:10054000FC01108264E670E080E090E00E944601C9
:100550000E94A200198280E290E0FC018081882F35
:1005600090E08170992721E0892B09F020E0822F0B
:100570008093170129818BEA289F812D1124982FC0
:100580009695892F880F890F922F981B992311F424
:100590000E94740180911701882311F00E94740158
:1005A0000000809112018823E1F389818F5F8983A4
:1005B00010921201D0CFEE0FFF1F0024001C0BBEC3
:0C05C0000790F691E02D0994F894FFCF0D
:1005CC0000000002000000007900000000000100A3
:0205DC0000001D
:00000001FF
