:100000000C9458000C9477000C9477000C947700B3
:100010000C9477000C9477000C9477000C94770084
:100020000C9477000C9477000C9477000C94770074
:100030000C9477000C94E4000C9477000C947700F7
:100040000C9477000C9477000C9477000C94770054
:100050000C9477000C9477000C9477000C94770044
:100060000C9477000C9477000C9477000C94770034
:100070000C9477000C9477000C9477000C94770024
:100080000C9477000C9477000C9477008E01950106
:100090009C01D1010602B101E6011B0239025F0297
:1000A00065026B02710277028902890289027D0270
:1000B00011241FBECFEFD0E4DEBFCDBF11E0A0E022
:1000C000B1E0E2E8F5E000E00BBF02C007900D925E
:1000D000A231B107D9F721E0A2E1B1E001C01D9240
:1000E000AB31B207E1F70E948E020C94BF020C9470
:1000F0000000CF93DF9300D01F92CDB7DEB7898386
:100100007B836A8389818A3031F48A819B81BC0137
:100110008DE00E94790080EC90E0FC018081882FC6
:1001200090E080729927892BB1F386EC90E02981C9
:10013000FC01208380E090E00F900F900F90DF9102
:10014000CF910895CF93DF93CDB7DEB781E890E0EC
:100150002BE0FC01208388E890E02DE730E0FC01F3
:10016000318320838FE690E022E0FC01208384E845
:1001700090E0FC011182108280910E0190910F019C
:10018000A0911001B091110180931301909314017B
:10019000A0931501B09316018FE590E02FE530E0B4
:1001A000F90120812068FC0120830000DF91CF91BC
:1001B0000895CF93DF93CDB7DEB781E0809312012E
:1001C0000000DF91CF9108951F920F9200905F0081
:1001D0000F92112400905B000F922F933F934F9347
:1001E0005F936F937F938F939F93AF93BF93EF939F
:1001F000FF93CF93DF93CDB7DEB78091130190913A
:100200001401A0911501B09116010197A109B1093E
:100210008093130190931401A0931501B0931601DC
:100220008091130190911401A0911501B0911601D4
:10023000892B8A2B8B2B91F40E94D90080910E017F
:1002400090910F01A0911001B091110180931301C1
:1002500090931401A0931501B09316010000DF9153
:10026000CF91FF91EF91BF91AF919F918F917F912E
:100270006F915F914F913F912F910F9000925B0092
:100280000F9000925F000F901F901895CF93DF930F
:1002900000D000D0CDB7DEB769837A838B839C838F
:1002A00089819A81AB81BC8180930E0190930F016B
:1002B000A0931001B093110180910E0190910F0154
:1002C000A0911001B091110180931301909314013A
:1002D000A0931501B093160100000F900F900F909E
:1002E0000F90DF91CF910895CF93DF93CDB7DEB715
:1002F0008091180190911901CC01A0E0B0E040E09C
:1003000050E028E030E0841B950B2817390708F4EB
:10031000B7C08A5B9F4FFC010C94B60281E090E06D
:100320009093190180931801B5C082E090E09093FA
:10033000190180931801AEC080911701882351F0F4
:1003400081E080931A0185E090E0909319018093F9
:100350001801A0C083E090E09093190180931801E8
:1003600099C080911701882321F480911A01882374
:1003700039F485E090E0909319018093180185C0CD
:1003800080911701882309F080C080911A01882389
:1003900009F47BC088E090E09093190180931801E4
:1003A00074C080911701882351F082E080931A0174
:1003B00086E090E090931901809318016BC084E06F
:1003C00090E0909319018093180164C08091170107
:1003D000882321F480911A01823039F086E090E080
:1003E000909319018093180152C0809117018823BE
:1003F00009F04DC080911A01823009F048C088E0B0
:1004000090E0909319018093180141C080911701E9
:10041000882351F083E080931A0187E090E0909365
:1004200019018093180136C082E090E09093190181
:10043000809318012FC080911701882321F48091A7
:100440001A01833039F087E090E09093190180938E
:1004500018011FC0809117018823D9F480911A01D7
:100460008330B9F488E090E09093190180931801EB
:1004700010C081E090E090931901809318010AC0A8
:10048000109219011092180105C0000003C000006D
:1004900001C000008091180190911901CC01A0E0E9
:1004A000B0E040E050E028E030E0841B950B2817D6
:1004B000390748F1815B9F4FFC010C94B60285E23D
:1004C00090E021E0FC01208325C085E290E021E05E
:1004D000FC0120831FC085E290E021E0FC01208325
:1004E00019C085E290E022E0FC01208313C085E280
:1004F00090E024E0FC0120830DC085E290E021E043
:10050000FC01208307C085E290E021E0FC0120830C
:1005100001C000000000DF91CF910895CF93DF93D9
:10052000CDB7DEB781E290E0FC01108282E290E07C
:100530002FEFFC01208384E290E02FEFFC01208369
:1005400085E290E0FC0110826CE271E080E090E0D6
:100550000E9446010E94A2000E9474010000809146
:1005600012018823E1F310921201F6CFEE0FFF1F64
:100570000024001C0BBE0790F691E02D0994F8941E
:02058000FFCFAB
:1005820000000002000000007900000000000100ED
:02059200000067
:00000001FF
