:100000000C9456000C9475000C9475000C947500BB
:100010000C9475000C9475000C9475000C9475008C
:100020000C9475000C9475000C9475000C9475007C
:100030000C9475000C94E2000C9475000C947500FF
:100040000C9475000C9475000C9475000C9475005C
:100050000C9475000C9475000C9475000C9475004C
:100060000C9475000C9475000C9475000C9475003C
:100070000C9475000C9475000C9475000C9475002C
:100080000C9475000C9475000C94750095019C01FE
:10009000A301CC01F10116023B0260028D02930222
:1000A000CF02CF02CF029902AF02C40211241FBEB9
:1000B000CFEFD0E4DEBFCDBF11E0A0E0B1E0E8E1DA
:1000C000F6E000E00BBF02C007900D92A231B1072D
:1000D000D9F721E0A2E1B1E001C01D92A931B20738
:1000E000E1F70E94D5020C940A030C940000CF9310
:1000F000DF9300D01F92CDB7DEB789837B836A83FD
:1001000089818A3031F48A819B81BC018DE00E9413
:10011000770080EC90E0FC018081882F90E0807275
:100120009927892BB1F386EC90E02981FC0120838B
:1001300080E090E00F900F900F90DF91CF910895A5
:10014000CF93DF93CDB7DEB781E890E02BE0FC01E1
:10015000208388E890E02DE730E0FC0131832083A4
:100160008FE690E022E0FC01208384E890E0FC012F
:100170001182108280910E0190910F01A0911001C7
:10018000B09111018093130190931401A093150174
:10019000B09316018FE590E02FE530E0F901208162
:1001A0002068FC0120830000DF91CF910895CF9358
:1001B000DF93CDB7DEB781E0809312010000DF91BD
:1001C000CF9108951F920F9200905F000F9211241B
:1001D00000905B000F922F933F934F935F936F9329
:1001E0007F938F939F93AF93BF93EF93FF93CF939F
:1001F000DF93CDB7DEB78091130190911401A091E8
:100200001501B09116010197A109B109809313015D
:1002100090931401A0931501B093160180911301DE
:1002200090911401A0911501B0911601892B8A2B90
:100230008B2B91F40E94D70080910E0190910F01B9
:10024000A0911001B09111018093130190931401BA
:10025000A0931501B09316010000DF91CF91FF919B
:10026000EF91BF91AF919F918F917F916F915F912E
:100270004F913F912F910F9000925B000F90009251
:100280005F000F901F901895CF93DF9300D000D0A0
:10029000CDB7DEB769837A838B839C8389819A810A
:1002A000AB81BC8180930E0190930F01A09310014C
:1002B000B093110180910E0190910F01A091100156
:1002C000B09111018093130190931401A093150133
:1002D000B093160100000F900F900F900F90DF91D8
:1002E000CF910895CF93DF931F92CDB7DEB71982D8
:1002F00080E290E0FC018081809583708983809109
:10030000170190911801CC01A0E0B0E040E050E06E
:1003100027E030E0841B950B2817390708F4E1C06B
:100320008A5B9F4FFC010C94010381E090E0909365
:10033000180180931701DBC082E090E090931801D0
:1003400080931701D4C08981813039F485E090E031
:100350009093180180931701C9C08981823039F4C4
:1003600086E090E09093180180931701BFC08981C7
:10037000833039F487E090E090931801809317015F
:10038000B5C08981882309F0B1C082E090E09093E4
:10039000180180931701AAC08981813039F485E062
:1003A00090E09093180180931701A1C08981833058
:1003B00039F487E090E0909318018093170197C07B
:1003C0008981823039F486E090E09093180180931F
:1003D00017018DC082E090E090931801809317017F
:1003E00086C08981823039F486E090E090931801CC
:1003F000809317017CC08981833039F487E090E0D5
:10040000909318018093170172C08981813039F46B
:1004100085E090E0909318018093170168C082E016
:1004200090E0909318018093170161C08981823018
:1004300039F486E090E0909318018093170157C03B
:100440008981833039F487E090E09093180180939C
:1004500017014DC08981813039F483E090E0909399
:1004600018018093170143C082E090E09093180137
:10047000809317013CC08981813039F485E090E098
:10048000909318018093170132C08981833039F429
:1004900087E090E0909318018093170128C089812C
:1004A000823039F484E090E0909318018093170132
:1004B0001EC082E090E0909318018093170117C04E
:1004C0008981833039F487E090E09093180180931C
:1004D00017010DC082E090E09093180180931701FE
:1004E00006C0109218011092170101C000008091FF
:1004F000170190911801CC01A0E0B0E040E050E07D
:1005000027E030E0841B950B2817390708F441C019
:10051000825B9F4FFC010C94010385E290E027E091
:10052000FC0120833DC085E290E027E0FC012083B0
:1005300037C083E290E0FC018081893050F485E28D
:1005400090E023E230E0F90120812F5FFC0120835D
:1005500027C085E290E029E0FC01208321C083E2EE
:1005600090E0FC018081882351F085E290E023E255
:1005700030E0F90120812150FC01208311C085E287
:1005800090E0FC0110820CC085E290E0FC0110823A
:1005900007C085E290E027E0FC01208301C0000055
:1005A00000000F90DF91CF910895CF93DF93CDB7E7
:1005B000DEB781E290E0FC01108282E290E02FEF52
:1005C000FC01208384E290E02FEFFC01208385E290
:1005D00090E0FC01108264E670E080E090E00E9410
:1005E00044010E94A00010921801109217010E946D
:1005F00072010000809112018823E1F31092120130
:10060000F6CFEE0FFF1F0024001C0BBE0790F691E3
:08061000E02D0994F894FFCFDE
:100618000000000200000000770000000000010058
:020628000000D0
:00000001FF
