:100000000C9456000C9475000C9475000C947500BB
:100010000C9475000C9475000C9475000C9475008C
:100020000C9475000C9475000C9475000C9475007C
:100030000C9475000C9475000C9475000C9475006C
:100040000C9475000C9475000C9475000C9475005C
:100050000C9475000C9475000C9475000C9475004C
:100060000C9475000C9475000C9475000C9475003C
:100070000C9475000C9475000C9475000C9475002C
:100080000C9475000C9475000C947500BA00C100B6
:10009000C800150155019501D50115024B02510209
:1000A0008D028D028D0257026D02820211241FBE45
:1000B000CFEFD0E4DEBFCDBF11E0A0E0B1E0E4E7D8
:1000C000F5E000E00BBF02C007900D92AE30B10723
:1000D000D9F721E0AEE0B1E001C01D92A031B20736
:1000E000E1F70E9492020C94B8020C940000CF93A6
:1000F000DF9300D01F92CDB7DEB789837B836A83FD
:1001000089818A3031F48A819B81BC018DE00E9413
:10011000770080EC90E0FC018081882F90E0807275
:100120009927892BB1F386EC90E02981FC0120838B
:1001300080E090E00F900F900F90DF91CF910895A5
:10014000CF93DF93CDB7DEB780910E0190910F0171
:10015000CC01A0E0B0E040E050E027E030E0841BBC
:10016000950B2817390708F47AC18A5B9F4FFC0169
:100170000C94AF0281E090E090930F0180930E0108
:1001800074C182E090E090930F0180930E016DC1E5
:1001900080E290E0FC018081882F90E0809590952E
:1001A00083709927019739F485E090E090930F01CF
:1001B00080930E0159C180E290E0FC018081882F7C
:1001C00090E08095909583709927029739F486E0A6
:1001D00090E090930F0180930E0146C180E290E081
:1001E000FC018081882F90E08095909583709927FD
:1001F000039739F487E090E090930F0180930E010C
:1002000033C180E290E0FC018081882F90E08095EE
:10021000909583709927892B09F026C182E090E0A0
:1002200090930F0180930E011FC180E290E0FC01CA
:100230008081882F90E08095909583709927019711
:1002400039F483E090E090930F0180930E010DC18B
:1002500080E290E0FC018081882F90E0809590956D
:1002600083709927039739F487E090E090930F010A
:1002700080930E01FAC080E290E0FC018081882F1B
:1002800090E08095909583709927029739F486E0E5
:1002900090E090930F0180930E01E7C082E090E020
:1002A00090930F0180930E01E0C080E290E0FC018A
:1002B0008081882F90E08095909583709927029790
:1002C00039F484E090E090930F0180930E01CDC04B
:1002D00080E290E0FC018081882F90E080959095ED
:1002E00083709927039739F487E090E090930F018A
:1002F00080930E01BAC080E290E0FC018081882FDB
:1003000090E08095909583709927019739F485E066
:1003100090E090930F0180930E01A7C082E090E0DF
:1003200090930F0180930E01A0C080E290E0FC0149
:100330008081882F90E0809590958370992702970F
:1003400039F486E090E090930F0180930E018DC008
:1003500080E290E0FC018081882F90E0809590956C
:1003600083709927039739F487E090E090930F0109
:1003700080930E017AC080E290E0FC018081882F9A
:1003800090E08095909583709927019739F483E0E8
:1003900090E090930F0180930E0167C082E090E09F
:1003A00090930F0180930E0160C080E290E0FC0109
:1003B0008081882F90E08095909583709927019790
:1003C00039F485E090E090930F0180930E014DC0C9
:1003D00080E290E0FC018081882F90E080959095EC
:1003E00083709927039739F487E090E090930F0189
:1003F00080930E013AC080E290E0FC018081882F5A
:1004000090E08095909583709927029739F484E065
:1004100090E090930F0180930E0127C082E090E05E
:1004200090930F0180930E0120C080E290E0FC01C8
:100430008081882F90E0809590958370992703970D
:1004400039F487E090E090930F0180930E010DC086
:1004500082E090E090930F0180930E0106C010920D
:100460000F0110920E0101C0000080910E019091C9
:100470000F01CC01A0E0B0E040E050E027E030E028
:10048000841B950B2817390708F441C0825B9F4FE6
:10049000FC010C94AF0288E290E027E0FC0120838D
:1004A0003DC088E290E027E0FC01208337C086E26F
:1004B00090E0FC018081893050F488E290E026E2EF
:1004C00030E0F90120812F5FFC01208327C088E202
:1004D00090E029E0FC01208321C086E290E0FC014D
:1004E0008081882351F088E290E026E230E0F90133
:1004F00020812150FC01208311C088E290E0FC01A2
:1005000010820CC088E290E0FC01108207C088E2F3
:1005100090E027E0FC01208301C000000000DF9193
:10052000CF910895CF93DF93CDB7DEB781E290E00E
:10053000FC01108282E290E02FEFFC01208387E231
:1005400090E02FEFFC01208388E290E0FC01108214
:1005500010920F0110920E010E94A000FDCFEE0F2D
:10056000FF1F0024001C0BBE0790F691E02D09949C
:04057000F894FFCF2D
:0E057400000000020000000077000000000000
:00000001FF
