:100000000C9456000C9475000C9475000C947500BB
:100010000C9475000C9475000C9475000C9475008C
:100020000C9475000C9475000C9475000C9475007C
:100030000C9475000C9475000C9475000C9475006C
:100040000C9475000C9475000C9475000C9475005C
:100050000C9475000C9475000C9475000C9475004C
:100060000C9475000C9475000C9475000C9475003C
:100070000C9475000C9475000C9475000C9475002C
:100080000C9475000C9475000C947500BA00C100B6
:10009000C800150155018201CB0114024A02500229
:1000A0008C028C028C0256026C02810211241FBE4B
:1000B000CFEFD0E4DEBFCDBF11E0A0E0B1E0E2E7DA
:1000C000F5E000E00BBF02C007900D92AE30B10723
:1000D000D9F721E0AEE0B1E001C01D92A131B20735
:1000E000E1F70E9491020C94B7020C940000CF93A8
:1000F000DF9300D01F92CDB7DEB789837B836A83FD
:1001000089818A3031F48A819B81BC018DE00E9413
:10011000770080EC90E0FC018081882F90E0807275
:100120009927892BB1F386EC90E02981FC0120838B
:1001300080E090E00F900F900F90DF91CF910895A5
:10014000CF93DF93CDB7DEB780910F01909110016F
:10015000CC01A0E0B0E040E050E027E030E0841BBC
:10016000950B2817390708F479C18A5B9F4FFC016A
:100170000C94AE0281E090E09093100180930F0107
:1001800073C182E090E09093100180930F016CC1E5
:1001900080E290E0FC018081882F90E0809590952E
:1001A00083709927019739F485E090E090931001CE
:1001B00080930F0158C180E290E0FC018081882F7C
:1001C00090E08095909583709927029739F486E0A6
:1001D00090E09093100180930F0145C180E290E080
:1001E000FC018081882F90E08095909583709927FD
:1001F000039739F487E090E09093100180930F010A
:1002000032C180E290E0FC018081882F90E08095EF
:10021000909583709927892B09F025C182E090E0A1
:100220009093100180930F011EC180E290E0FC01C9
:100230008081882F90E08095909583709927019711
:1002400039F483E090E09093100180930F010CC18A
:1002500080E290E0FC018081882F90E0809590956D
:1002600083709927039739F487E090E09093100109
:1002700080930F01F9C080E290E0FC018081882F1B
:1002800090E08095909583709927029739F486E0E5
:1002900090E09093100180930F01E6C082E090E01F
:1002A0009093100180930F01DFC080E290E0FC0189
:1002B0008081882F90E08095909583709927019791
:1002C00039F484E090E09093100180930F01CCC04A
:1002D00080E290E0FC018081882F90E080959095ED
:1002E00083709927039739F487E090E09093100189
:1002F00080930F01B9C082E090E090931001809349
:100300000F01B2C080910E018F5F80930E0180E2D9
:1003100090E0FC018081882F90E08095909583701B
:100320009927029759F480910E01883038F086E0C1
:1003300090E09093100180930F0196C080E290E0CE
:10034000FC018081882F90E080959095837099279B
:10035000039739F487E090E09093100180930F01A8
:1003600083C080E290E0FC018081882F90E080953E
:10037000909583709927019739F483E090E09093EA
:10038000100180930F0170C082E090E09093100103
:1003900080930F0169C080910E01815080930E01FE
:1003A00080E290E0FC018081882F90E0809590951C
:1003B00083709927019759F480910E01882339F4AD
:1003C00085E090E09093100180930F014DC080E292
:1003D00090E0FC018081882F90E08095909583705B
:1003E0009927039739F487E090E090931001809368
:1003F0000F013AC080E290E0FC018081882F90E0FC
:100400008095909583709927029739F484E090E065
:100410009093100180930F0127C082E090E09093A9
:10042000100180930F0120C080E290E0FC018081E8
:10043000882F90E08095909583709927039739F4E1
:1004400087E090E09093100180930F010DC082E04F
:1004500090E09093100180930F0106C0109210015C
:1004600010920F0101C0000080910F0190911001C6
:10047000CC01A0E0B0E040E050E027E030E0841B99
:10048000950B2817390708F441C0825B9F4FFC0188
:100490000C94AE0288E290E021E0FC0120833DC094
:1004A00088E290E021E0FC01208337C086E290E002
:1004B000FC0180818D3750F488E290E026E230E044
:1004C000F9012081220FFC01208327C088E290E0FF
:1004D00021E0FC01208321C086E290E0FC018081C4
:1004E000882349F088E290E026E230E0F90120819B
:1004F000FC01208312C088E290E021E0FC0120830F
:100500000CC088E290E0FC01108207C088E290E015
:1005100020E8FC01208301C000000000DF91CF91A2
:100520000895CF93DF93CDB7DEB781E290E0FC0171
:10053000108282E290E02FEFFC01208387E290E0BE
:100540002FEFFC01208388E290E0FC0110821092E2
:10055000100110920F010E94A000FDCFEE0FFF1FAF
:100560000024001C0BBE0790F691E02D0994F8942E
:02057000FFCFBB
:0E057200000000020000000077000000000002
:00000001FF
