:100000000C9458000C9477000C9477000C947700B3
:100010000C9477000C9477000C9477000C94770084
:100020000C9477000C9477000C9477000C94770074
:100030000C9477000C94AB010C9477000C9477002F
:100040000C9477000C9477000C9477000C94770054
:100050000C9477000C9477000C9477000C94770044
:100060000C9477000C9477000C9477000C94770034
:100070000C9477000C9477000C9477000C94770024
:100080000C9477000C9477000C94770064026B0258
:10009000B3027C0283028A02910298029F02CF027D
:1000A000D5022203DB02E802F50202030F031C0360
:1000B00011241FBECFEFD0E4DEBFCDBF11E0A0E022
:1000C000B1E0EAEEF9E000E00BBF02C007900D924C
:1000D000A632B107D9F721E0A6E2B1E001C01D9236
:1000E000A133B207E1F70E942C030C94F3040C94A3
:1000F0000000CF93DF9300D01F92CDB7DEB7898386
:100100007B836A8389818A3031F48A819B81BC0137
:100110008DE00E94790080EC90E0FC018081882FC6
:1001200090E080729927892BB1F386EC90E02981C9
:10013000FC01208380E090E00F900F900F90DF9102
:10014000CF9108950F931F93CF93DF9300D000D0EA
:10015000CDB7DEB769837A838B839C8380912B0133
:1001600090912C01A0912D01B0912E019C01AD0127
:1001700069817A818B819C810E945F03882309F4C5
:1001800077C020E030E0A90169817A818B819C8170
:100190000E945F03882351F481E990E021E930E077
:1001A000F90120812870FC01208309C081E990E0D9
:1001B00021E930E0F90120812360FC01208328E55A
:1001C00039E344E75FE369817A818B819C810E94F6
:1001D0005F03882344F488E990E02FEF3FEFFC01B0
:1001E0003183208334C020E034E244EF56E4698157
:1001F0007A818B819C810E948104181634F488E9ED
:1002000090E0FC011182108222C008E910E020E099
:1002100030E040E053E469817A818B819C810E94C7
:100220008604DC01CB019C01AD0160E074E284EF47
:100230009AE40E946403DC01CB01BC01CD010E9461
:10024000D603DC01CB010197F8019183808384E917
:1002500090E0FC011182108289819A81AB81BC817E
:1002600080932B0190932C01A0932D01B0932E012C
:1002700000000F900F900F900F90DF91CF911F9182
:100280000F910895CF93DF93CDB7DEB780E990E06B
:1002900020E4FC01208381E990E02BE0FC01208335
:1002A00060E070E0CB010E94A2000000DF91CF91DE
:1002B0000895CF93DF93CDB7DEB780E990E0FC01DE
:1002C000108281E990E0FC0110820000DF91CF9163
:1002D0000895CF93DF93CDB7DEB781E890E02BE0B0
:1002E000FC01208388E890E02DE730E0FC013183B9
:1002F00020838FE690E022E0FC01208384E890E0F8
:10030000FC011182108280910E0190910F01A09149
:100310001001B09111018093270190932801A093BF
:100320002901B0932A018FE590E02FE530E0F90133
:1003300020812068FC0120830000DF91CF91089587
:10034000CF93DF93CDB7DEB781E080932601000025
:10035000DF91CF9108951F920F9200905F000F924E
:10036000112400905B000F922F933F934F935F9364
:100370006F937F938F939F93AF93BF93EF93FF936D
:10038000CF93DF93CDB7DEB78091270190912801FD
:10039000A0912901B0912A010197A109B109809387
:1003A000270190932801A0932901B0932A018091FD
:1003B000270190912801A0912901B0912A01892B50
:1003C0008A2B8B2B91F40E94A00180910E019091B9
:1003D0000F01A0911001B09111018093270190931A
:1003E0002801A0932901B0932A010000DF91CF9149
:1003F000FF91EF91BF91AF919F918F917F916F91FD
:100400005F914F913F912F910F9000925B000F9061
:1004100000925F000F901F901895CF93DF9300D04C
:1004200000D0CDB7DEB769837A838B839C838981C3
:100430009A81AB81BC8180930E0190930F01A093B0
:100440001001B093110180910E0190910F01A091C4
:100450001001B09111018093270190932801A0937E
:100460002901B0932A0100000F900F900F900F9078
:10047000DF91CF910895CF93DF931F92CDB7DEB771
:10048000198280E290E0FC018081882F90E08170E9
:10049000992721E0892B09F020E0298380912F0101
:1004A00090913001CC01A0E0B0E040E050E028E0C5
:1004B00030E0841B950B2817390708F454C08A5B79
:1004C0009F4FFC010C94560381E090E09093300123
:1004D00080932F014EC08981813039F483E090E010
:1004E0009093300180932F0144C081E090E090937D
:1004F000300180932F013DC084E090E09093300163
:1005000080932F0136C085E090E090933001809376
:100510002F012FC086E090E09093300180932F014F
:1005200028C087E090E09093300180932F0121C094
:1005300088E090E09093300180932F011AC0898168
:10054000813039F488E090E09093300180932F015E
:100550000FC08981882361F481E090E0909330019D
:1005600080932F0105C01092300110922F0101C01D
:10057000000080912F0190913001CC01A0E0B0E00B
:1005800040E050E028E030E0841B950B2817390745
:1005900008F458C0815B9F4FFC010C94560360E047
:1005A00070E0CB010E94A20052C060E070E0CB017D
:1005B0000E94A2004CC08091120190911301A09161
:1005C0001401B0911501BC01CD010E94A2003FC0F1
:1005D0008091160190911701A0911801B091190115
:1005E000BC01CD010E94A20032C080911A019091FD
:1005F0001B01A0911C01B0911D01BC01CD010E9405
:10060000A20025C080911E0190911F01A0912001A0
:10061000B0912101BC01CD010E94A20018C08091BF
:10062000220190912301A0912401B0912501BC01E8
:10063000CD010E94A2000BC060E070E0CB010E94DF
:10064000A20005C01092300110922F01000000009E
:100650000F90DF91CF910895CF93DF93CDB7DEB7A1
:1006600081E290E0FC01108282E290E02FEFFC0139
:10067000208384E290E02FEFFC01208385E290E06C
:10068000FC01108264EF71E080E090E00E940D02B6
:100690000E9469010E9442010E943B020000809179
:1006A00026018823E1F310922601F6CFEE0FFF1FFB
:1006B0000024001C0BBE0790F691E02D09940E94C7
:1006C0000C0408F481E008950E9478030C94470418
:1006D0000E94400458F00E94390440F029F45F3F22
:1006E00029F00C94300451110C947B040C943604C2
:1006F0000E94580468F39923B1F3552391F3951B95
:10070000550BBB27AA2762177307840738F09F5F32
:100710005F4F220F331F441FAA1FA9F335D00E2E9F
:100720003AF0E0E832D091505040E695001CCAF70C
:100730002BD0FE2F29D0660F771F881FBB1F2617CF
:1007400037074807AB07B0E809F0BB0B802DBF01A6
:10075000FF2793585F4F3AF09E3F510578F00C9475
:1007600030040C947B045F3FE4F3983ED4F3869509
:1007700077956795B795F7959F5FC9F7880F911D96
:100780009695879597F90895E1E0660F771F881F82
:10079000BB1F621773078407BA0720F0621B730B35
:1007A000840BBA0BEE1F88F7E09508950E94DD03D5
:1007B0006894B1110C947B0408950E94600488F041
:1007C0009F5798F0B92F9927B751B0F0E1F0660F15
:1007D000771F881F991F1AF0BA95C9F714C0B13056
:1007E00091F00E947A04B1E008950C947A04672F86
:1007F000782F8827B85F39F0B93FCCF38695779585
:100800006795B395D9F73EF490958095709561956D
:100810007F4F8F4F9F4F0895990F0008550FAA0BD8
:10082000E0E8FEEF16161706E807F907C0F0121603
:100830001306E407F50798F0621B730B840B950B06
:1008400039F40A2661F0232B242B252B21F408955B
:100850000A2609F4A140A6958FEF811D811D0895F8
:1008600097F99F6780E870E060E008959FEF80EC63
:10087000089500240A941616170618060906089506
:1008800000240A9412161306140605060895092E6C
:100890000394000C11F4882352F0BB0F40F4BF2BDB
:1008A00011F460FF04C06F5F7F4F8F4F9F4F08951B
:1008B00057FD9058440F551F59F05F3F71F0479511
:1008C000880F97FB991F61F09F3F79F087950895F6
:1008D000121613061406551FF2CF4695F1DF08C015
:1008E000161617061806991FF1CF86957105610532
:1008F00008940895E894BB2766277727CB0197F9DA
:1009000008950E940C0408F48FEF08950E94990442
:100910000C9447040E94390438F00E94400420F0EF
:10092000952311F00C9430040C94360411240C948B
:100930007B040E94580470F3959FC1F3950F50E01B
:10094000551F629FF001729FBB27F00DB11D639F81
:10095000AA27F00DB11DAA1F649F6627B00DA11D27
:10096000661F829F2227B00DA11D621F739FB00DCD
:10097000A11D621F839FA00D611D221F749F33273D
:10098000A00D611D231F849F600D211D822F762FD6
:100990006A2F11249F5750409AF0F1F088234AF0B3
:1009A000EE0FFF1FBB1F661F771F881F915050401F
:1009B000A9F79E3F510580F00C9430040C947B0401
:1009C0005F3FE4F3983ED4F3869577956795B795A6
:1009D000F795E7959F5FC1F7FE2B880F911D9695C0
:0A09E000879597F90895F894FFCF6A
:1009EA000000000200000000790000000000010081
:1009FA000000A4D0A443719DAE430000C443719D7E
:060A0A00AE430000C443EE
:00000001FF
