:100000000C9456000C9475000C9475000C947500BB
:100010000C9475000C9475000C9475000C9475008C
:100020000C9475000C9475000C9475000C9475007C
:100030000C9475000C94A9010C9475000C94750037
:100040000C9475000C9475000C9475000C9475005C
:100050000C9475000C9475000C9475000C9475004C
:100060000C9475000C9475000C9475000C9475003C
:100070000C9475000C9475000C9475000C9475002C
:100080000C9475000C9475000C9475005C0263026E
:1000900074029902AD02B402BB02CC02F802000362
:1000A00061036103060323034003480311241FBEB9
:1000B000CFEFD0E4DEBFCDBF11E0A0E0B1E0E0E6DD
:1000C000FAE000E00BBF02C007900D92A233B10727
:1000D000D9F721E0A2E3B1E001C01D92AE33B2072F
:1000E000E1F70E9467030C942E050C940000CF9357
:1000F000DF9300D01F92CDB7DEB789837B836A83FD
:1001000089818A3031F48A819B81BC018DE00E9413
:10011000770080EC90E0FC018081882F90E0807275
:100120009927892BB1F386EC90E02981FC0120838B
:1001300080E090E00F900F900F90DF91CF910895A5
:100140000F931F93CF93DF9300D000D0CDB7DEB7CE
:1001500069837A838B839C838091380190913901E4
:10016000A0913A01B0913B019C01AD0169817A8176
:100170008B819C810E949A03882309F477C020E038
:1001800030E0A90169817A818B819C810E949A0368
:10019000882351F481E990E021E930E0F9012081E0
:1001A0002870FC01208309C081E990E021E930E05A
:1001B000F90120812360FC01208328E539E344E72D
:1001C0005FE369817A818B819C810E949A038823F5
:1001D00044F488E990E02FEF3FEFFC013183208366
:1001E00034C020E034E244EF56E469817A818B81A7
:1001F0009C810E94BC04181634F488E990E0FC014C
:100200001182108222C008E910E020E030E040E0D6
:1002100053E469817A818B819C810E94C104DC0155
:10022000CB019C01AD0160E074E284EF9AE40E948E
:100230009F03DC01CB01BC01CD010E941104DC0154
:10024000CB010197F8019183808384E990E0FC0160
:100250001182108289819A81AB81BC81809338019F
:1002600090933901A0933A01B0933B0100000F90A5
:100270000F900F900F90DF91CF911F910F910895E4
:10028000CF93DF93CDB7DEB780E990E020E4FC01A7
:10029000208381E990E02BE0FC01208360E070E0A6
:1002A000CB010E94A0000000DF91CF910895CF9371
:1002B000DF93CDB7DEB780E990E0FC01108281E9E1
:1002C00090E0FC0110820000DF91CF910895CF9360
:1002D000DF93CDB7DEB781E890E02BE0FC0120830F
:1002E00088E890E02DE730E0FC01318320838FE641
:1002F00090E022E0FC01208384E890E0FC01118280
:10030000108280910E0190910F01A0911001B09187
:1003100011018093330190933401A0933501B09380
:1003200036018FE590E02FE530E0F901208120686B
:10033000FC0120830000DF91CF910895CF93DF93DC
:10034000CDB7DEB781E0809332010000DF91CF911D
:1003500008951F920F9200905F000F921124009059
:100360005B000F922F933F934F935F936F937F9315
:100370008F939F93AF93BF93EF93FF93CF93DF93AD
:10038000CDB7DEB78091330190913401A091350152
:10039000B09136010197A109B1098093330190937F
:1003A0003401A0933501B0933601809133019091CF
:1003B0003401A0913501B0913601892B8A2B8B2B0A
:1003C00091F40E949E0180910E0190910F01A091E5
:1003D0001001B09111018093330190933401A093E7
:1003E0003501B09336010000DF91CF91FF91EF917D
:1003F000BF91AF919F918F917F916F915F914F913D
:100400003F912F910F9000925B000F9000925F0040
:100410000F901F901895CF93DF9300D000D0CDB7E9
:10042000DEB769837A838B839C8389819A81AB81D0
:10043000BC8180930E0190930F01A0931001B093A3
:10044000110180910E0190910F01A0911001B091C6
:1004500011018093330190933401A0933501B0933F
:10046000360100000F900F900F900F90DF91CF9109
:100470000895CF93DF931F92CDB7DEB7198280E244
:1004800090E0FC01808180958770898380913C0198
:1004900090913D01CC01A0E0B0E040E050E027E0C9
:1004A00030E0841B950B2817390708F486C08A5B57
:1004B0009F4FFC010C94910381E090E090933D01EB
:1004C00080933C017FC08981843039F487E090E0DB
:1004D00090933D0180933C0175C081E090E0909342
:1004E0003D0180933C016EC08981813039F484E004
:1004F00090E090933D0180933C0164C089818230FB
:1005000039F485E090E090933D0180933C015AC01E
:100510008981843039F486E090E090933D018093A6
:100520003C0150C082E090E090933D0180933C01FB
:1005300049C08981813051F08981823039F082E06F
:1005400090E090933D0180933C013CC083E090E0BB
:1005500090933D0180933C0135C083E090E09093FF
:100560003D0180933C012EC083E090E090933D01DB
:1005700080933C0127C08981843039F486E090E083
:1005800090933D0180933C011DC081E090E09093E9
:100590003D0180933C0116C08981843039F487E0A5
:1005A00090E090933D0180933C010CC082E090E08C
:1005B00090933D0180933C0105C010923D01109243
:1005C0003C01000080913C0190913D01CC01A0E0F4
:1005D000B0E040E050E027E030E0841B950B2817A6
:1005E000390708F469C0825B9F4FFC010C949103AA
:1005F0001092370160E070E0CB010E94A00062C061
:1006000060E070E0CB010E94A0005CC080913701E7
:10061000873028F4809137018F5F80933701809174
:100620003701882F90E0880F991F880F991F8E5EE1
:100630009E4FFC0180819181A281B381BC01CD01DB
:100640000E94A0003FC080913701882329F080914B
:10065000370181508093370180913701882F90E0D6
:10066000880F991F880F991F8E5E9E4FFC01808115
:100670009181A281B381BC01CD010E94A00022C062
:1006800060E070E0CB010E94A000109237011AC018
:1006900080913701882F90E0880F991F880F991F4C
:1006A0008E5E9E4FFC0180819181A281B381BC014D
:1006B000CD010E94A00006C010923D0110923C01A5
:1006C00001C0000000000F90DF91CF910895CF93FB
:1006D000DF93CDB7DEB781E290E0FC01108282E2C9
:1006E00090E02FEFFC01208384E290E02FEFFC01EB
:1006F000208385E290E0FC01108264E670E080E0F7
:1007000090E00E940B020E9467010E9440010E943B
:1007100039020000809132018823E1F31092320106
:10072000F6CFEE0FFF1F0024001C0BBE0790F691C2
:10073000E02D09940E94470408F481E008950E9486
:10074000B3030C9482040E947B0458F00E9474044A
:1007500040F029F45F3F29F00C946B0451110C9484
:10076000B6040C9471040E94930468F39923B1F3C6
:10077000552391F3951B550BBB27AA2762177307C7
:10078000840738F09F5F5F4F220F331F441FAA1F5B
:10079000A9F335D00E2E3AF0E0E832D09150504017
:1007A000E695001CCAF72BD0FE2F29D0660F771FC5
:1007B000881FBB1F261737074807AB07B0E809F0AB
:1007C000BB0B802DBF01FF2793585F4F3AF09E3F30
:1007D000510578F00C946B040C94B6045F3FE4F37D
:1007E000983ED4F3869577956795B795F7959F5F73
:1007F000C9F7880F911D9695879597F90895E1E0BF
:10080000660F771F881FBB1F621773078407BA071D
:1008100020F0621B730B840BBA0BEE1F88F7E09578
:1008200008950E9418046894B1110C94B6040895B8
:100830000E949B0488F09F5798F0B92F9927B751D1
:10084000B0F0E1F0660F771F881F991F1AF0BA9574
:10085000C9F714C0B13091F00E94B504B1E0089519
:100860000C94B504672F782F8827B85F39F0B93F0B
:10087000CCF3869577956795B395D9F73EF4909527
:100880008095709561957F4F8F4F9F4F0895990F79
:100890000008550FAA0BE0E8FEEF16161706E8074A
:1008A000F907C0F012161306E407F50798F0621B6B
:1008B000730B840B950B39F40A2661F0232B242B40
:1008C000252B21F408950A2609F4A140A6958FEF5F
:1008D000811D811D089597F99F6780E870E060E0B1
:1008E00008959FEF80EC089500240A9416161706C9
:1008F00018060906089500240A9412161306140611
:1009000005060895092E0394000C11F4882352F073
:10091000BB0F40F4BF2B11F460FF04C06F5F7F4F2B
:100920008F4F9F4F089557FD9058440F551F59F012
:100930005F3F71F04795880F97FB991F61F09F3FCC
:1009400079F087950895121613061406551FF2CFF5
:100950004695F1DF08C0161617061806991FF1CF45
:1009600086957105610508940895E894BB2766276C
:100970007727CB0197F908950E94470408F48FEF79
:1009800008950E94D4040C9482040E94740438F0E8
:100990000E947B0420F0952311F00C946B040C94BE
:1009A000710411240C94B6040E94930470F3959F73
:1009B000C1F3950F50E0551F629FF001729FBB2756
:1009C000F00DB11D639FAA27F00DB11DAA1F649FF2
:1009D0006627B00DA11D661F829F2227B00DA11DA5
:1009E000621F739FB00DA11D621F839FA00D611D2B
:1009F000221F749F3327A00D611D231F849F600D4C
:100A0000211D822F762F6A2F11249F5750409AF074
:100A1000F1F088234AF0EE0FFF1FBB1F661F771F00
:100A2000881F91505040A9F79E3F510580F00C94CB
:100A30006B040C94B6045F3FE4F3983ED4F38695C0
:100A400077956795B795F795E7959F5FC1F7FE2B6B
:100A5000880F911D9695879597F90895F894FFCF83
:100A6000000000020000000077000000000001000C
:100A70000000A4D082437BD49243A4D0A443719DB0
:100A8000AE430000C4430000DC43A4F0F64300D0B2
:020A900002441E
:00000001FF
