:100000000C9446000C9465000C9465000C946500FB
:100010000C9465000C9465000C9465000C946500CC
:100020000C9465000C9465000C9465000C946500BC
:100030000C9465000C9465000C9465000C946500AC
:100040000C9465000C9465000C9465000C9465009C
:100050000C9465000C9465000C9465000C9465008C
:100060000C9465000C9465000C9465000C9465007C
:100070000C9465000C9465000C9465000C9465006C
:100080000C9465000C9465000C94650011241FBE4F
:10009000CFEFD0E4DEBFCDBF11E0A0E0B1E0E4E7F8
:1000A000F2E000E00BBF02C007900D92AE30B10746
:1000B000D9F721E0AEE0B1E001C01D92A231B20754
:1000C000E1F70E94A1000C9438010C940000CF933A
:1000D000DF9300D01F92CDB7DEB789837B836A831D
:1000E00089818A3031F48A819B81BC018DE00E9434
:1000F000670080EC90E0FC018081882F90E08072A6
:100100009927892BB1F386EC90E02981FC012083AB
:1001100080E090E00F900F900F90DF91CF910895C5
:10012000CF93DF93CDB7DEB78AE790E02AE730E0E0
:10013000F9012081206EFC0120830000DF91CF9126
:100140000895CF93DF93CDB7DEB781E290E0FC0155
:10015000108282E290E02FEFFC01208384E290E0A5
:100160002FEFFC01208385E290E0FC0110828AE2FF
:1001700090E02FEFFC0120838BE290E0FC011082E5
:100180000E94900088E790E0FC018081918190932B
:100190000F0180930E018BEC90E0909311018093FE
:1001A000100180910E0190910F014A9730F485E281
:1001B00090E021E0FC012083E5CF80910E01909139
:1001C0000F01C39730F485E290E023E0FC01208327
:1001D000D9CF80910E0190910F018C34910530F4AC
:1001E00085E290E027E0FC012083CCCF80910E01D6
:1001F00090910F018536910530F485E290E02FE073
:10020000FC012083BFCF80910E0190910F018E37AA
:10021000910530F485E290E02FE1FC012083B2CF1C
:1002200080910E0190910F018739910530F485E29C
:1002300090E02FE3FC012083A5CF80910E019091E7
:100240000F01803B910530F485E290E02FE7FC013F
:10025000208398CF80910E0190910F018F3A9105E4
:1002600008F490CF85E290E02FEFFC0120838ACF45
:04027000F894FFCF30
:0E027400000000020000000067000000000013
:00000001FF
