:100000000C9446000C9465000C9465000C946500FB
:100010000C9465000C9465000C9465000C946500CC
:100020000C9465000C9465000C9465000C946500BC
:100030000C9465000C94D2000C9465000C9465003F
:100040000C9465000C9465000C9465000C9465009C
:100050000C9465000C9465000C9465000C9465008C
:100060000C9465000C9465000C9465000C9465007C
:100070000C9465000C9465000C9465000C9465006C
:100080000C9465000C9465000C94650011241FBE4F
:10009000CFEFD0E4DEBFCDBF11E0A0E0B1E0E6E6F7
:1000A000F7E000E00BBF02C007900D92A231B1074C
:1000B000D9F721E0A2E1B1E001C01D92A632B2075A
:1000C000E1F70E94DB020C94B1030C940000CF9383
:1000D000DF9300D01F92CDB7DEB789837B836A831D
:1000E00089818A3031F48A819B81BC018DE00E9434
:1000F000670080EC90E0FC018081882F90E08072A6
:100100009927892BB1F386EC90E02981FC012083AB
:1001100080E090E00F900F900F90DF91CF910895C5
:10012000CF93DF93CDB7DEB781E890E02BE0FC0101
:10013000208388E890E02DE730E0FC0131832083C4
:100140008FE690E022E0FC01208384E890E0FC014F
:100150001182108280910E0190910F01A0911001E7
:10016000B09111018093130190931401A093150194
:10017000B09316018FE590E02FE530E0F901208182
:100180002068FC0120830000DF91CF910895CF9378
:10019000DF93CDB7DEB781E0809312010000DF91DD
:1001A000CF9108951F920F9200905F000F9211243B
:1001B00000905B000F922F933F934F935F936F9349
:1001C0007F938F939F93AF93BF93EF93FF93CF93BF
:1001D000DF93CDB7DEB78091130190911401A09108
:1001E0001501B09116010197A109B109809313017E
:1001F00090931401A0931501B093160180911301FF
:1002000090911401A0911501B0911601892B8A2BB0
:100210008B2B91F40E94C70080910E0190910F01E9
:10022000A0911001B09111018093130190931401DA
:10023000A0931501B09316010000DF91CF91FF91BB
:10024000EF91BF91AF919F918F917F916F915F914E
:100250004F913F912F910F9000925B000F90009271
:100260005F000F901F901895CF93DF9300D000D0C0
:10027000CDB7DEB769837A838B839C8389819A812A
:10028000AB81BC8180930E0190930F01A09310016C
:10029000B093110180910E0190910F01A091100176
:1002A000B09111018093130190931401A093150153
:1002B000B093160100000F900F900F900F90DF91F8
:1002C000CF910895CF93DF93CDB7DEB780911A0118
:1002D00090911B018130910581F08130910530F0C2
:1002E0008230910589F00397B1F01CC081E090E065
:1002F00090931B0180931A011AC082E090E09093C2
:100300001B0180931A0113C083E090E090931B01BE
:1003100080931A010CC081E090E090931B018093C0
:100320001A0105C010921B0110921A010000809161
:100330001A0190911B018130910549F0813091059E
:10034000B0F08230910539F0039749F00CC081E09C
:10035000809325010DC082E08093250109C084E0CF
:100360008093250105C081E08093250101C0000034
:100370000000DF91CF910895CF93DF93CDB7DEB723
:1003800080912101909122018130910569F08130A5
:10039000910518F0029779F015C081E090E09093F4
:1003A00022018093210115C082E090E09093220108
:1003B000809321010EC081E090E090932201809310
:1003C000210107C081E090E09093220180932101F8
:1003D000000080912101909122018130910531F03E
:1003E0008130910570F0029729F007C088E0809372
:1003F000200108C01092200105C088E080932001F0
:1004000001C000000000DF91CF910895CF93DF93EA
:100410001F92CDB7DEB7898380911E0190911F0195
:1004200081309105A9F08130910518F0029709F10A
:100430002FC08981882339F082E090E090931F01DA
:1004400080931E012AC010921F0110921E0125C028
:100450008981882339F081E090E090931F01809397
:100460001E011BC082E090E090931F0180931E014B
:1004700014C08981882339F081E090E090931F01B6
:1004800080931E010AC010921F0110921E0105C028
:1004900010921F0110921E01000080911E01909188
:1004A0001F018130910549F08130910518F00297C4
:1004B00059F007C01092170108C081E0809317011E
:1004C00004C01092170101C0000000000F90DF91DE
:1004D000CF910895CF93DF93CDB7DEB780912301FD
:1004E00090912401009719F0019741F017C081E025
:1004F00090E0909324018093230117C0809117010D
:10050000882329F010922401109223010EC081E06B
:1005100090E0909324018093230107C081E090E054
:1005200090932401809323010000809123019091F6
:100530002401009719F0019729F007C080E180930A
:10054000180106C01092180103C010921801000093
:100550000000DF91CF910895CF93DF93CDB7DEB741
:1005600080911C0190911D01892B29F410921D018D
:1005700010921C0104C010921D0110921C01809168
:100580001C0190911D01892B09F011C0909120014F
:1005900080912501982B80911801892B8093190156
:1005A00085E290E020911901FC0120830000000009
:1005B000DF91CF910895CF93DF93CDB7DEB72D971D
:1005C0000FB6F894DEBF0FBECDBF81E290E0FC0114
:1005D000108282E290E02FEFFC01208384E290E021
:1005E0002FEFFC01208385E290E0FC0110828CE279
:1005F00091E0A0E0B0E089839A83AB83BC8388EE6E
:1006000093E0A0E0B0E08D839E83AF83B88782E063
:1006100090E0A0E0B0E089879A87AB87BC871D8611
:1006200061E070E080E090E00E9434010E94900060
:1006300080E290E0FC018081809584708D878D85BB
:100640000E94060289819A81AB81BC812CE231E053
:1006500040E050E0BC01CD010E948F03DC01CB01E2
:10066000892B8A2B8B2B31F40E94620119821A820A
:100670001B821C828D819E81AF81B88528EE33E07C
:1006800040E050E0BC01CD010E948F03DC01CB01B2
:10069000892B8A2B8B2B31F40E94BC011D821E8278
:1006A0001F82188689859A85AB85BC8581709927BC
:1006B000AA27BB27892B8A2B8B2B31F40E946A0235
:1006C00019861A861B861C860E94AC020000809147
:1006D00012018823E1F31092120189819A81AB8182
:1006E000BC810196A11DB11D89839A83AB83BC8314
:1006F0008D819E81AF81B8850196A11DB11D8D832D
:100700009E83AF83B88789859A85AB85BC85019622
:10071000A11DB11D89879A87AB87BC8789CFA1E2CC
:100720001A2EAA1BBB1BFD010DC0AA1FBB1FEE1F6B
:10073000FF1FA217B307E407F50720F0A21BB30BB6
:10074000E40BF50B661F771F881F991F1A9469F732
:1007500060957095809590959B01AC01BD01CF018E
:060760000895F894FFCF9C
:100766000000000200000000670000000000010019
:02077600000081
:00000001FF
