:100000000C9446000C9465000C9465000C946500FB
:100010000C9465000C9465000C9465000C946500CC
:100020000C9465000C9465000C9465000C946500BC
:100030000C9465000C94D2000C9465000C9465003F
:100040000C9465000C9465000C9465000C9465009C
:100050000C9465000C9465000C9465000C9465008C
:100060000C9465000C9465000C9465000C9465007C
:100070000C9465000C9465000C9465000C9465006C
:100080000C9465000C9465000C94650011241FBE4F
:10009000CFEFD0E4DEBFCDBF11E0A0E0B1E0E0E4FF
:1000A000F8E000E00BBF02C007900D92A231B1074B
:1000B000D9F721E0A2E1B1E001C01D92A932B20757
:1000C000E1F70E942D030C941E040C940000CF93C2
:1000D000DF9300D01F92CDB7DEB789837B836A831D
:1000E00089818A3031F48A819B81BC018DE00E9434
:1000F000670080EC90E0FC018081882F90E08072A6
:100100009927892BB1F386EC90E02981FC012083AB
:1001100080E090E00F900F900F90DF91CF910895C5
:10012000CF93DF93CDB7DEB781E890E02BE0FC0101
:10013000208388E890E02DE730E0FC0131832083C4
:100140008FE690E022E0FC01208384E890E0FC014F
:100150001182108280910E0190910F01A0911001E7
:10016000B09111018093130190931401A093150194
:10017000B09316018FE590E02FE530E0F901208182
:100180002068FC0120830000DF91CF910895CF9378
:10019000DF93CDB7DEB781E0809312010000DF91DD
:1001A000CF9108951F920F9200905F000F9211243B
:1001B00000905B000F922F933F934F935F936F9349
:1001C0007F938F939F93AF93BF93EF93FF93CF93BF
:1001D000DF93CDB7DEB78091130190911401A09108
:1001E0001501B09116010197A109B109809313017E
:1001F00090931401A0931501B093160180911301FF
:1002000090911401A0911501B0911601892B8A2BB0
:100210008B2B91F40E94C70080910E0190910F01E9
:10022000A0911001B09111018093130190931401DA
:10023000A0931501B09316010000DF91CF91FF91BB
:10024000EF91BF91AF919F918F917F916F915F914E
:100250004F913F912F910F9000925B000F90009271
:100260005F000F901F901895CF93DF9300D000D0C0
:10027000CDB7DEB769837A838B839C8389819A812A
:10028000AB81BC8180930E0190930F01A09310016C
:10029000B093110180910E0190910F01A091100176
:1002A000B09111018093130190931401A093150153
:1002B000B093160100000F900F900F900F90DF91F8
:1002C000CF910895CF93DF93CDB7DEB780911F0113
:1002D000909120018130910581F08130910530F0BD
:1002E0008230910589F00397B1F01CC081E090E065
:1002F0009093200180931F011AC082E090E09093B8
:10030000200180931F0113C083E090E090932001AF
:1003100080931F010CC081E090E0909320018093B6
:100320001F0105C01092200110921F010000809152
:100330001F01909120018130910549F08130910594
:10034000B0F08230910539F0039749F00CC081E09C
:10035000809317010DC082E08093170109C084E0EB
:100360008093170105C081E08093170101C0000050
:100370000000DF91CF910895CF93DF93CDB7DEB723
:1003800080912501909126018130910569F081309D
:10039000910518F0029779F015C081E090E09093F4
:1003A00026018093250115C082E090E090932601FC
:1003B000809325010EC081E090E090932601809308
:1003C000250107C081E090E09093260180932501EC
:1003D000000080912501909126018130910531F036
:1003E0008130910570F0029729F007C088E0809372
:1003F000180108C01092180105C088E08093180108
:1004000001C000000000DF91CF910895CF93DF93EA
:100410001F92CDB7DEB7898380912301909124018B
:1004200081309105A9F08130910518F0029709F10A
:100430002FC08981882339F082E090E090932401D5
:10044000809323012AC0109224011092230125C019
:100450008981882339F081E090E090932401809392
:1004600023011BC082E090E090932401809323013C
:1004700014C08981882339F081E090E090932401B1
:10048000809323010AC0109224011092230105C019
:100490001092240110922301000080912301909179
:1004A00024018130910549F08130910518F00297BF
:1004B00059F007C010921B0108C081E080931B0116
:1004C00004C010921B0101C0000000000F90DF91DA
:1004D000CF910895CF93DF931F92CDB7DEB7898375
:1004E00080911D0190911E0181309105F9F08130BC
:1004F000910518F0029741F135C08981813039F4B6
:1005000081E090E090931E0180931D0130C08981AD
:10051000823039F482E090E090931E0180931D01B7
:1005200026C010921E0110921D0121C080911C0155
:10053000882329F080911C01815080931C01109226
:100540001E0110921D0113C080911C018A3028F4F5
:1005500080911C018F5F80931C0110921E011092EC
:100560001D0105C010921E0110921D010000000027
:100570000F90DF91CF910895CF93DF93CDB7DEB782
:100580008091270190912801009719F0019741F07F
:1005900017C081E090E0909328018093270117C055
:1005A00080911B01882329F01092280110922701C5
:1005B0000EC081E090E0909328018093270107C04E
:1005C00081E090E0909328018093270100008091C2
:1005D000270190912801009719F0019729F007C091
:1005E00080E18093190106C01092190103C0109296
:1005F000190100000000DF91CF910895CF93DF93A0
:10060000CDB7DEB78091210190912201892B29F489
:10061000109222011092210104C010922201109226
:1006200021018091210190912201892B09F011C0B3
:100630009091180180911701982B80911901892BB5
:1006400080931A0185E290E020911A01FC01208339
:1006500000000000DF91CF910895CF93DF93CDB7D5
:10066000DEB72E970FB6F894DEBF0FBECDBF81E286
:1006700090E0FC01108282E290E02FEFFC012083E9
:1006800084E290E02FEFFC01208385E290E0FC0102
:1006900010828CE291E0A0E0B0E089839A83AB8382
:1006A000BC8388EE93E0A0E0B0E08D839E83AF83AF
:1006B000B88781E090E0A0E0B0E089879A87AB87B7
:1006C000BC871D861E8661E070E080E090E00E949D
:1006D00034010E94900010921E0110921D0181E0D1
:1006E00090E0909328018093270185E080931C017E
:1006F00080E290E0FC018081809584708D8780E2AB
:1007000090E0FC018081809583708E878D850E94AA
:10071000060289819A81AB81BC812CE231E040E004
:1007200050E0BC01CD010E94FC03DC01CB01892B10
:100730008A2B8B2B31F40E94620119821A821B8250
:100740001C828D819E81AF81B88528EE33E040E028
:1007500050E0BC01CD010E94FC03DC01CB01892BE0
:100760008A2B8B2B31F40E94BC011D821E821F82BA
:1007700018868E850E946A0280911C01282F30E025
:1007800040E050E089859A85AB85BC858217930748
:10079000A407B50730F00E94BC0219861A861B8692
:1007A0001C860E94FE020000809112018823E1F362
:1007B0001092120189819A81AB81BC810196A11DA1
:1007C000B11D89839A83AB83BC838D819E81AF8168
:1007D000B8850196A11DB11D8D839E83AF83B88717
:1007E00089859A85AB85BC850196A11DB11D898738
:1007F0009A87AB87BC877CCFA1E21A2EAA1BBB1BB2
:10080000FD010DC0AA1FBB1FEE1FFF1FA217B307DC
:10081000E407F50720F0A21BB30BE40BF50B661FF2
:10082000771F881F991F1A9469F7609570958095B6
:1008300090959B01AC01BD01CF010895F894FFCFC5
:10084000000000020000000067000000000001003E
:020850000000A6
:00000001FF
