:100000000C9446000C9465000C9465000C946500FB
:100010000C9465000C9465000C9465000C946500CC
:100020000C9465000C9465000C9465000C946500BC
:100030000C9465000C94D2000C9465000C9465003F
:100040000C9465000C9465000C9465000C9465009C
:100050000C9465000C9465000C9465000C9465008C
:100060000C9465000C9465000C9465000C9465007C
:100070000C9465000C9465000C9465000C9465006C
:100080000C9465000C9465000C94650011241FBE4F
:10009000CFEFD0E4DEBFCDBF11E0A0E0B1E0E0E300
:1000A000F8E000E00BBF02C007900D92A231B1074B
:1000B000D9F721E0A2E1B1E001C01D92AC32B20754
:1000C000E1F70E945A030C9416040C940000CF939D
:1000D000DF9300D01F92CDB7DEB789837B836A831D
:1000E00089818A3031F48A819B81BC018DE00E9434
:1000F000670080EC90E0FC018081882F90E08072A6
:100100009927892BB1F386EC90E02981FC012083AB
:1001100080E090E00F900F900F90DF91CF910895C5
:10012000CF93DF93CDB7DEB781E890E02BE0FC0101
:10013000208388E890E02DE730E0FC0131832083C4
:100140008FE690E022E0FC01208384E890E0FC014F
:100150001182108280910E0190910F01A0911001E7
:10016000B09111018093130190931401A093150194
:10017000B09316018FE590E02FE530E0F901208182
:100180002068FC0120830000DF91CF910895CF9378
:10019000DF93CDB7DEB781E0809312010000DF91DD
:1001A000CF9108951F920F9200905F000F9211243B
:1001B00000905B000F922F933F934F935F936F9349
:1001C0007F938F939F93AF93BF93EF93FF93CF93BF
:1001D000DF93CDB7DEB78091130190911401A09108
:1001E0001501B09116010197A109B109809313017E
:1001F00090931401A0931501B093160180911301FF
:1002000090911401A0911501B0911601892B8A2BB0
:100210008B2B91F40E94C70080910E0190910F01E9
:10022000A0911001B09111018093130190931401DA
:10023000A0931501B09316010000DF91CF91FF91BB
:10024000EF91BF91AF919F918F917F916F915F914E
:100250004F913F912F910F9000925B000F90009271
:100260005F000F901F901895CF93DF9300D000D0C0
:10027000CDB7DEB769837A838B839C8389819A812A
:10028000AB81BC8180930E0190930F01A09310016C
:10029000B093110180910E0190910F01A091100176
:1002A000B09111018093130190931401A093150153
:1002B000B093160100000F900F900F900F90DF91F8
:1002C000CF910895CF93DF93CDB7DEB78091220110
:1002D000909123018130910581F08130910530F0BA
:1002E0008230910589F00397B1F01CC081E090E065
:1002F00090932301809322011AC082E090E09093B2
:1003000023018093220113C083E090E090932301A6
:10031000809322010CC081E090E0909323018093B0
:10032000220105C010922301109222010000809149
:100330002201909123018130910549F0813091058E
:10034000B0F08230910539F0039749F00CC081E09C
:10035000809317010DC082E08093170109C084E0EB
:100360008093170105C081E08093170101C0000050
:100370000000DF91CF910895CF93DF93CDB7DEB723
:1003800080912801909129018130910569F0813097
:10039000910518F0029779F015C081E090E09093F4
:1003A00029018093280115C082E090E090932901F3
:1003B000809328010EC081E090E090932901809302
:1003C000280107C081E090E09093290180932801E3
:1003D000000080912801909129018130910531F030
:1003E0008130910570F0029729F007C088E0809372
:1003F000180108C01092180105C088E08093180108
:1004000001C000000000DF91CF910895CF93DF93EA
:100410001F92CDB7DEB78983809126019091270185
:1004200081309105A9F08130910518F0029709F10A
:100430002FC08981882339F082E090E090932701D2
:10044000809326012AC0109227011092260125C010
:100450008981882339F081E090E09093270180938F
:1004600026011BC082E090E0909327018093260133
:1004700014C08981882339F081E090E090932701AE
:10048000809326010AC0109227011092260105C010
:100490001092270110922601000080912601909170
:1004A00027018130910549F08130910518F00297BC
:1004B00059F007C010921B0108C081E080931B0116
:1004C00004C010921B0101C0000000000F90DF91DA
:1004D000CF910895CF93DF931F92CDB7DEB7898375
:1004E00080912001909121018130910501F18130AD
:1004F000910520F0029709F43EC061C089818130E6
:1005000039F481E090E090932101809320015CC058
:100510008981823039F482E090E0909321018093C8
:10052000200152C010922101109220014DC08091F3
:100530001C0190911D01A0911E01B0911F01892BFA
:100540008A2B8B2B99F080911C0190911D01A09119
:100550001E01B0911F010197A109B10980931C01EF
:1005600090931D01A0931E01B0931F0110922101D1
:100570001092200129C080911C0190911D01A09131
:100580001E01B0911F010A97A105B10598F4809151
:100590001C0190911D01A0911E01B0911F010196B7
:1005A000A11DB11D80931C0190931D01A0931E01FC
:1005B000B0931F01109221011092200105C01092EA
:1005C000210110922001000000000F90DF91CF91D7
:1005D0000895CF93DF93CDB7DEB780912A01909134
:1005E0002B01009719F0019741F017C081E090E0CE
:1005F00090932B0180932A0117C080911B018823BF
:1006000029F010922B0110922A010EC081E090E097
:1006100090932B0180932A0107C081E090E0909392
:100620002B0180932A01000080912A0190912B01D7
:10063000009719F0019729F007C080E18093190114
:1006400006C01092190103C01092190100000000A9
:10065000DF91CF910895CF93DF93CDB7DEB780912F
:10066000240190912501892B29F4109225011092E3
:10067000240104C0109225011092240180912401CC
:1006800090912501892B09F011C09091180180915A
:100690001701982B80911901892B80931A0185E20B
:1006A00090E020911A01FC01208300000000DF91FE
:1006B000CF910895CF93DF93CDB7DEB72E970FB6C6
:1006C000F894DEBF0FBECDBF81E290E0FC01108246
:1006D00082E290E02FEFFC01208384E290E02FEF94
:1006E000FC01208385E290E0FC0110828CE291E025
:1006F000A0E0B0E089839A83AB83BC8388EE93E06B
:10070000A0E0B0E08D839E83AF83B88781E090E066
:10071000A0E0B0E089879A87AB87BC871D861E86DC
:1007200061E070E080E090E00E9434010E9490005F
:10073000109221011092200181E090E090932B0112
:1007400080932A0180E290E0FC0180818095847092
:100750008D8780E290E0FC018081809583708E8798
:100760008D850E9406028E850E946A0280911C017E
:1007700090911D01A0911E01B0911F0129853A851C
:100780004B855C85281739074A075B0730F00E94C4
:10079000E90219861A861B861C8689819A81AB819B
:1007A000BC818C329140A105B10530F00E946201FC
:1007B00019821A821B821C828D819E81AF81B8852D
:1007C000883E9340A105B10530F00E94BC011D8216
:1007D0001E821F8218860E942B0300008091120146
:1007E0008823E1F31092120189819A81AB81BC8147
:1007F0000196A11DB11D89839A83AB83BC838D8132
:100800009E81AF81B8850196A11DB11D8D839E8308
:10081000AF83B88789859A85AB85BC850196A11D74
:10082000B11D89879A87AB87BC878CCFF894FFCF9F
:10083000000000020000000067000000000001004E
:020840000000B6
:00000001FF
