:100000000C9446000C9465000C9465000C946500FB
:100010000C9465000C9465000C9465000C946500CC
:100020000C9465000C9465000C9465000C946500BC
:100030000C9465000C94D2000C9465000C9465003F
:100040000C9465000C9465000C9465000C9465009C
:100050000C9465000C9465000C9465000C9465008C
:100060000C9465000C9465000C9465000C9465007C
:100070000C9465000C9465000C9465000C9465006C
:100080000C9465000C9465000C94650011241FBE4F
:10009000CFEFD0E4DEBFCDBF11E0A0E0B1E0EAEAEF
:1000A000F4E000E00BBF02C007900D92A231B1074F
:1000B000D9F721E0A2E1B1E001C01D92A032B20760
:1000C000E1F70E9430020C9453020C940000CF938D
:1000D000DF9300D01F92CDB7DEB789837B836A831D
:1000E00089818A3031F48A819B81BC018DE00E9434
:1000F000670080EC90E0FC018081882F90E08072A6
:100100009927892BB1F386EC90E02981FC012083AB
:1001100080E090E00F900F900F90DF91CF910895C5
:10012000CF93DF93CDB7DEB781E890E02BE0FC0101
:10013000208388E890E02DE730E0FC0131832083C4
:100140008FE690E022E0FC01208384E890E0FC014F
:100150001182108280910E0190910F01A0911001E7
:10016000B09111018093130190931401A093150194
:10017000B09316018FE590E02FE530E0F901208182
:100180002068FC0120830000DF91CF910895CF9378
:10019000DF93CDB7DEB781E0809312010000DF91DD
:1001A000CF9108951F920F9200905F000F9211243B
:1001B00000905B000F922F933F934F935F936F9349
:1001C0007F938F939F93AF93BF93EF93FF93CF93BF
:1001D000DF93CDB7DEB78091130190911401A09108
:1001E0001501B09116010197A109B109809313017E
:1001F00090931401A0931501B093160180911301FF
:1002000090911401A0911501B0911601892B8A2BB0
:100210008B2B91F40E94C70080910E0190910F01E9
:10022000A0911001B09111018093130190931401DA
:10023000A0931501B09316010000DF91CF91FF91BB
:10024000EF91BF91AF919F918F917F916F915F914E
:100250004F913F912F910F9000925B000F90009271
:100260005F000F901F901895CF93DF9300D000D0C0
:10027000CDB7DEB769837A838B839C8389819A812A
:10028000AB81BC8180930E0190930F01A09310016C
:10029000B093110180910E0190910F01A091100176
:1002A000B09111018093130190931401A093150153
:1002B000B093160100000F900F900F900F90DF91F8
:1002C000CF910895CF93DF93CDB7DEB7809118011A
:1002D000909119018130910581F08130910530F0C4
:1002E0008230910589F00397B1F01CC081E090E065
:1002F000909319018093180119C082E090E09093C7
:1003000019018093180112C083E090E090931901C5
:10031000809318010BC081E090E0909319018093C5
:10032000180104C01092190110921801809118014F
:10033000909119018130910549F081309105B0F01B
:100340008230910539F0039749F00CC081E0809329
:100350001F010DC082E080931F0109C084E08093DB
:100360001F0105C081E080931F0101C00000000053
:10037000DF91CF910895CF93DF93CDB7DEB7809112
:100380001D0190911E018130910569F08130910528
:1003900018F0029779F015C081E090E090931E016B
:1003A00080931D0114C082E090E090931E01809321
:1003B0001D010DC081E090E090931E0180931D010E
:1003C00006C081E090E090931E0180931D01809112
:1003D0001D0190911E018130910531F08130910510
:1003E00070F0029729F007C088E080931C0108C0D4
:1003F00010921C0105C088E080931C0101C0000020
:100400000000DF91CF910895CF93DF93CDB7DEB792
:1004100080911A0190911B01892B29F410921B01E4
:1004200010921A0104C010921B0110921A018091BF
:100430001A0190911B01892B09F00EC090911C01AB
:1004400080911F01892B8093170185E290E0209114
:100450001701FC01208300000000DF91CF91089577
:10046000CF93DF93CDB7DEB784E290E02FEFFC01AE
:10047000208385E290E0FC01108268EE73E080E06A
:1004800090E00E9434010E9490000E9462010E944C
:10049000BB010E9404020000809112018823E1F355
:0A04A00010921201F2CFF894FFCF82
:1004AA0000000002000000006700000000000100D8
:0204BA00000040
:00000001FF
