:100000000C9493000C94B2000C94B2000C94B200C7
:100010000C94B2000C94B2000C94B2000C94B20098
:100020000C94B2000C94B2000C94B2000C94B20088
:100030000C94B2000C94E1020C94B2000C94B20047
:100040000C94B2000C94B2000C94B2000C94B20068
:100050000C94B2000C94B2000C94B2000C94B20058
:100060000C94B2000C94B2000C94B2000C94B20048
:100070000C94B2000C94B2000C94B2000C94B20038
:100080000C94B2000C94B2000C94B2007103B4034F
:10009000B403B403B403B403B403B403B403B403A8
:1000A000B403B403B403B403B403B403B403B40398
:1000B000B403B403B403B403B403B403B403B40388
:1000C000B403B403B403B403B403B403B403B40378
:1000D000B403B003B403B403B403B403B403B4036C
:1000E000A903B403B403B403B403B403AD037503A9
:1000F00079037D038103850389038D0391039503B0
:10010000B403B403B403B403B403B403B403990352
:100110009D03A103A50309040E041E042E043E043E
:100120004E045E046E0411241FBECFEFD0E4DEBF88
:10013000CDBF11E0A0E0B1E0EAECFBE000E00BBFD6
:1001400002C007900D92A231B107D9F721E0A2E1D8
:10015000B1E001C01D92A133B207E1F70E948C0407
:100160000C94E3050C940000CF93DF9300D01F9212
:10017000CDB7DEB789837B836A8389818A3031F486
:100180008A819B81BC018DE00E94B40080EC90E0EC
:10019000FC018081882F90E080729927892BB1F330
:1001A00086EC90E02981FC01208380E090E00F90B4
:1001B0000F900F90DF91CF910895CF93DF9300D0F0
:1001C0001F92CDB7DEB789836A834B838B818823E7
:1001D00071F08A81282F30E081E090E002C0880F22
:1001E000991F2A95E2F7982F8981892B0EC08A8161
:1001F000282F30E081E090E002C0880F991F2A95F7
:10020000E2F7982F9095898189230F900F900F9096
:10021000DF91CF910895CF93DF9300D0CDB7DEB7B4
:1002200089836A838A81282F30E081E090E002C0D0
:10023000880F991F2A95E2F7982F898189230F90BB
:100240000F90DF91CF9108950F931F93CF93DF937A
:10025000CDB7DEB708E210E040E064E08FEF0E9427
:10026000DD00F8018083000086E290E0FC018081DF
:10027000809560E00E940B01882311F081E3D3C0D8
:1002800086E290E0FC018081809561E00E940B0194
:10029000882311F084E3C7C086E290E0FC018081EE
:1002A000809562E00E940B01882311F087E3BBC0B8
:1002B00086E290E0FC018081809563E00E940B0162
:1002C000882311F08AE2AFC008E210E040E065E068
:1002D0008FEF0E94DD00F8018083000086E290E04D
:1002E000FC018081809560E00E940B01882311F061
:1002F00082E399C086E290E0FC018081809561E014
:100300000E940B01882311F085E38DC086E290E006
:10031000FC018081809562E00E940B01882311F02E
:1003200088E381C086E290E0FC018081809563E0F3
:100330000E940B01882311F080E375C008E210E0F1
:1003400040E066E08FEF0E94DD00F801808300004E
:1003500086E290E0FC018081809560E00E940B01C4
:10036000882311F083E35FC086E290E0FC01808186
:10037000809561E00E940B01882311F086E353C051
:1003800086E290E0FC018081809562E00E940B0192
:10039000882311F089E347C086E290E0FC01808168
:1003A000809563E00E940B01882311F083E23BC03B
:1003B00008E210E040E067E08FEF0E94DD00F80106
:1003C0008083000086E290E0FC018081809560E0FF
:1003D0000E940B01882311F081E425C086E290E0A1
:1003E000FC018081809561E00E940B01882311F05F
:1003F00082E419C086E290E0FC018081809562E091
:100400000E940B01882311F083E40DC086E290E086
:10041000FC018081809563E00E940B01882311F02C
:1004200084E401C080E0DF91CF911F910F91089586
:10043000CF93DF93CDB7DEB72C970FB6F894DEBF1E
:100440000FBECDBF6D837E838F83988729873A87C0
:100450004B875C878D819E81AF81B88529853A85E0
:100460004B855C85BC01CD010E94B805DC01CB0148
:1004700089839A83AB83BC8389819A81AB81BC8158
:10048000892B8A2B8B2B29F489859A85AB85BC8592
:1004900011C089859A85AB85BC858D839E83AF838A
:1004A000B88789819A81AB81BC8189879A87AB871C
:1004B000BC87D0CFBC01CD012C960FB6F894DEBF1F
:1004C0000FBECDBFDF91CF910895CF93DF9300D0C2
:1004D00000D0CDB7DEB769837A838B839C83898113
:1004E0009A81AB81BC8180930E0190930F01A09300
:1004F0001001B093110180910E0190910F01A09114
:100500001001B09111018093130190931401A093F5
:100510001501B093160100000F900F900F900F90EF
:10052000DF91CF910895CF93DF93CDB7DEB781E808
:1005300090E02BE0FC01208388E890E02DE730E09C
:10054000FC01318320838FE690E022E0FC012083D0
:1005500084E890E0FC011182108280910E0190915C
:100560000F01A0911001B09111018093130190939C
:100570001401A0931501B09316018FE590E02FE5CB
:1005800030E0F90120812068FC0120830000DF9128
:10059000CF910895CF93DF93CDB7DEB781E890E098
:1005A000FC0110820000DF91CF910895CF93DF937B
:1005B000CDB7DEB781E0809312010000DF91CF91CB
:1005C00008951F920F9200905F000F9211240090E7
:1005D0005B000F922F933F934F935F936F937F93A3
:1005E0008F939F93AF93BF93EF93FF93CF93DF933B
:1005F000CDB7DEB78091130190911401A091150140
:10060000B09116010197A109B1098093130190934C
:100610001401A0931501B0931601809113019091DC
:100620001401A0911501B0911601892B8A2B8B2BF7
:1006300091F40E94D60280910E0190910F01A09139
:100640001001B09111018093130190931401A093B4
:100650001501B09316010000DF91CF91FF91EF914A
:10066000BF91AF919F918F917F916F915F914F91CA
:100670003F912F910F9000925B000F9000925F00CE
:100680000F901F901895CF93DF9300D0CDB7DEB7B2
:100690009A83898389819A81009719F0019731F0B3
:1006A0006CC081E090E09A8389836AC00E94240133
:1006B0008093300180913001882F90E0092E000C4A
:1006C000AA0BBB0B40E050E024E430E0841B950B08
:1006D0002817390708F448C08A5B9F4FFC010C9427
:1006E000DA058FE18093170143C081E08093170101
:1006F0003FC082E0809317013BC083E080931701E5
:1007000037C084E08093170133C085E080931701E0
:100710002FC086E0809317012BC087E080931701DC
:1007200027C088E08093170123C089E080931701D8
:100730001FC08AE0809317011BC08BE080931701D4
:1007400017C08CE08093170113C08DE080931701D0
:100750000FC08EE0809317010BC01092170108C0E4
:100760008FE08093170104C08BE180931701000094
:1007700081E090E09A83898303C01A821982000085
:1007800089819A81009761F0019739F485E290E0C0
:1007900020911701FC01208304C01A82198201C034
:1007A000000089819A81009741F0019709F006C005
:1007B000809117018093180101C0000089819A81FE
:1007C0000F900F90DF91CF910895CF93DF9300D0DA
:1007D0001F92CDB7DEB79B838A8383E290E0FC0152
:1007E00080818095807889838A819B81092E000C85
:1007F000AA0BBB0B40E050E027E030E0841B950BD8
:100800002817390708F47AC085579F4FFC010C94CC
:10081000DA0581E090E09B838A8370C01092190111
:10082000809118018F3029F482E090E09B838A83C5
:1008300065C081E090E09B838A8360C010921901BB
:1008400080911801813029F483E090E09B838A83B2
:1008500055C081E090E09B838A8350C010921901BB
:1008600080911801823029F484E090E09B838A8390
:1008700045C081E090E09B838A8340C010921901BB
:1008800080911801833029F485E090E09B838A836E
:1008900035C081E090E09B838A8330C010921901BB
:1008A00080911801843029F486E090E09B838A834C
:1008B00025C081E090E09B838A8320C010921901BB
:1008C00080911801853029F487E090E09B838A832A
:1008D00015C081E090E09B838A8310C081E0809303
:1008E00019018981803829F481E090E09B838A8313
:1008F00004C087E090E09B838A83000085E290E05B
:1009000020911901FC0120838A819B810F900F9017
:100910000F90DF91CF9108950F931F93CF93DF93A3
:10092000CDB7DEB729970FB6F894DEBF0FBECDBFA7
:1009300084E290E02FE0FC01208385E290E020EF4C
:10094000FC01208387E290E0FC01108288E290E0C5
:100950002FEFFC0120838AE191E09F838E8385E263
:1009600091E09987888782E090E09C838B831D8249
:100970008D8180931A0182E390E0A0E0B0E0809343
:100980001B0190931C01A0931D01B0931E01809147
:100990001B0190911C01A0911D01B0911E0180933B
:1009A0001F0190932001A0932101B093220183E4C1
:1009B00093E090932401809323018D8180932501FE
:1009C00082E390E0A0E0B0E08093260190932701BD
:1009D000A0932801B09329018091260190912701CD
:1009E000A0912801B091290180932A0190932B01B5
:1009F000A0932C01B0932D0185EE93E090932F01ED
:100A000080932E0162E370E080E090E00E94650236
:100A10000E9493021A8219829BC089819A81880F51
:100A2000991F9E012F5F3F4F820F931F0596FC0178
:100A300080819181FC0125813681478150858981A2
:100A40009A81880F991FBE016F5F7F4F860F971F96
:100A50000596FC0180819181FC0181819281A381B5
:100A6000B481281739074A075B0709F045C0898117
:100A70009A81880F991F9E012F5F3F4F820F931F0E
:100A80000596FC010081118189819A81880F991F47
:100A90009E012F5F3F4F820F931F0596FC018081BF
:100AA0009181FC012185328589819A81880F991F66
:100AB000AE014F5F5F4F840F951F0596FC0180814B
:100AC0009181FC018081082E000C990BF901099598
:100AD000F801808389819A81880F991F9E012F5F79
:100AE0003F4F820F931F0596FC0180819181FC018D
:100AF000158216821782108689819A81880F991F24
:100B00009E012F5F3F4F820F931F0596FC012081AE
:100B1000318189819A81880F991FAE014F5F5F4FA4
:100B2000840F951F0596FC0180819181FC018581D0
:100B30009681A781B085C296A11DB11DF90185835B
:100B40009683A783B08789819A8101969A83898346
:100B500029813A818B819C812817390708F45DCF60
:100B60000000809112018823E1F31092120152CF0C
:100B7000A1E21A2EAA1BBB1BFD010DC0AA1FBB1FA1
:100B8000EE1FFF1FA217B307E407F50720F0A21B13
:100B9000B30BE40BF50B661F771F881F991F1A9480
:100BA00069F760957095809590959B01AC01BD01AA
:100BB000CF010895EE0FFF1F0024001C0BBE07900D
:0A0BC000F691E02D0994F894FFCFA0
:100BCA000000000200000000B40000000000010064
:020BDA00000019
:00000001FF
