:100000000C9458000C9477000C9477000C947700B3
:100010000C9477000C9477000C9477000C94770084
:100020000C9477000C9477000C9477000C94770074
:100030000C9477000C94A6020C9477000C94770033
:100040000C9477000C9477000C9477000C94770054
:100050000C9477000C9477000C9477000C94770044
:100060000C9477000C9477000C9477000C94770034
:100070000C9477000C9477000C9477000C94770024
:100080000C9477000C9477000C94770030033503C0
:10009000450361037D039903B5032504D10375046A
:1000A0004A044F04540459045E0463046D04680454
:1000B00011241FBECFEFD0E4DEBFCDBF11E0A0E022
:1000C000B1E0EEE5FBE000E00BBF02C007900D924F
:1000D000A231B107D9F721E0A2E1B1E001C01D9240
:1000E000A532B207E1F70E947E040C94AD050C9492
:1000F0000000CF93DF9300D01F92CDB7DEB7898386
:100100007B836A8389818A3031F48A819B81BC0137
:100110008DE00E94790080EC90E0FC018081882FC6
:1001200090E080729927892BB1F386EC90E02981C9
:10013000FC01208380E090E00F900F900F90DF9102
:10014000CF910895CF93DF9300D01F92CDB7DEB744
:1001500089836A834B838B81882371F08A81282F5E
:1001600030E081E090E002C0880F991F2A95E2F705
:10017000982F8981892B0EC08A81282F30E081E059
:1001800090E002C0880F991F2A95E2F7982F90956A
:10019000898189230F900F900F90DF91CF9108955F
:1001A000CF93DF9300D0CDB7DEB789836A838A818E
:1001B000282F30E081E090E002C0880F991F2A9537
:1001C000E2F7982F898189230F900F90DF91CF91CB
:1001D00008950F931F93CF93DF93CDB7DEB708E257
:1001E00010E040E064E08FEF0E94A200F8018083FD
:1001F000000086E290E0FC018081809560E00E9432
:10020000D000882311F081E3D3C086E290E0FC01A6
:100210008081809561E00E94D000882311F084E302
:10022000C7C086E290E0FC018081809562E00E9478
:10023000D000882311F087E3BBC086E290E0FC0188
:100240008081809563E00E94D000882311F08AE2CB
:10025000AFC008E210E040E065E08FEF0E94A2002E
:10026000F8018083000086E290E0FC0180818095A7
:1002700060E00E94D000882311F082E399C086E2FA
:1002800090E0FC018081809561E00E94D00088238D
:1002900011F085E38DC086E290E0FC0180818095BD
:1002A00062E00E94D000882311F088E381C086E2DA
:1002B00090E0FC018081809563E00E94D00088235B
:1002C00011F080E375C008E210E040E066E08FEFD7
:1002D0000E94A200F8018083000086E290E0FC0109
:1002E0008081809560E00E94D000882311F083E334
:1002F0005FC086E290E0FC018081809561E00E9411
:10030000D000882311F086E353C086E290E0FC0120
:100310008081809562E00E94D000882311F089E3FB
:1003200047C086E290E0FC018081809563E00E94F6
:10033000D000882311F083E23BC008E210E040E0E7
:1003400067E08FEF0E94A200F8018083000086E240
:1003500090E0FC018081809560E00E94D0008823BD
:1003600011F081E425C086E290E0FC018081809557
:1003700061E00E94D000882311F082E419C086E277
:1003800090E0FC018081809562E00E94D00088238B
:1003900011F083E40DC086E290E0FC01808180953D
:1003A00063E00E94D000882311F084E401C080E063
:1003B000DF91CF911F910F910895CF93DF93CDB728
:1003C000DEB72C970FB6F894DEBF0FBECDBF6D839E
:1003D0007E838F83988729873A874B875C878D81B7
:1003E0009E81AF81B88529853A854B855C85BC01A6
:1003F000CD010E948205DC01CB0189839A83AB8306
:10040000BC8389819A81AB81BC81892B8A2B8B2B00
:1004100029F489859A85AB85BC8511C089859A8523
:10042000AB85BC858D839E83AF83B88789819A8194
:10043000AB81BC8189879A87AB87BC87D0CFBC0151
:10044000CD012C960FB6F894DEBF0FBECDBFDF9165
:10045000CF910895CF93DF9300D000D0CDB7DEB712
:1004600069837A838B839C8389819A81AB81BC81E8
:1004700080930E0190930F01A0931001B09311018E
:1004800080910E0190910F01A0911001B091110186
:100490008093130190931401A0931501B09316015A
:1004A00000000F900F900F900F90DF91CF91089563
:1004B000CF93DF93CDB7DEB781E890E02BE0FC016E
:1004C000208388E890E02DE730E0FC013183208331
:1004D0008FE690E022E0FC01208384E890E0FC01BC
:1004E0001182108280910E0190910F01A091100154
:1004F000B09111018093130190931401A093150101
:10050000B09316018FE590E02FE530E0F9012081EE
:100510002068FC0120830000DF91CF910895CF93E4
:10052000DF93CDB7DEB781E890E0FC0110820000D8
:10053000DF91CF910895CF93DF93CDB7DEB781E000
:10054000809312010000DF91CF9108951F920F92C6
:1005500000905F000F92112400905B000F922F9388
:100560003F934F935F936F937F938F939F93AF933B
:10057000BF93EF93FF93CF93DF93CDB7DEB7809117
:10058000130190911401A0911501B09116010197EA
:10059000A109B1098093130190931401A09315014F
:1005A000B09316018091130190911401A09115014F
:1005B000B0911601892B8A2B8B2B91F40E949B0200
:1005C00080910E0190910F01A0911001B091110145
:1005D0008093130190931401A0931501B093160119
:1005E0000000DF91CF91FF91EF91BF91AF919F916B
:1005F0008F917F916F915F914F913F912F910F90CC
:1006000000925B000F9000925F000F901F90189572
:10061000CF93DF9300D01F92CDB7DEB79B838A8341
:1006200083E290E0FC0180818095807889830E943C
:10063000E900809317018A819B81092E000CAA0B87
:10064000BB0B40E050E028E030E0841B950B2817FE
:10065000390708F408C18A5B9F4FFC010C94A4057C
:1006600081E090E09B838A8301C11092180110926F
:10067000190180911701833219F488E090E002C0DB
:1006800081E090E09B838A83F1C081E08093180130
:100690001092190180911701882329F482E090E0DB
:1006A0009B838A83E3C080911701813329F488E01A
:1006B00090E09B838A83DAC081E090E09B838A8309
:1006C000D5C082E080931801109219018091170122
:1006D000882329F483E090E09B838A83C7C08091BC
:1006E0001701823329F488E090E09B838A83BEC09F
:1006F00081E090E09B838A83B9C083E080931801F6
:100700001092190180911701882329F484E090E068
:100710009B838A83ABC080911701833329F488E0DF
:1007200090E09B838A83A2C081E090E09B838A83D0
:100730009DC084E0809318011092190180911701E7
:10074000882329F485E090E09B838A838FC0809181
:100750001701843329F488E090E09B838A8386C064
:1007600081E090E09B838A8381C085E080931801BB
:100770001092190180911701882329F486E090E0F6
:100780009B838A8373C080911701853329F488E0A5
:1007900090E09B838A836AC081E090E09B838A8398
:1007A00065C080911801882349F48091170188233E
:1007B00029F482E090E09B838A8346C080911801EF
:1007C000813049F480911701882329F483E090E077
:1007D0009B838A8339C080911801823049F48091CB
:1007E0001701882329F484E090E09B838A832CC03E
:1007F00080911801833049F480911701882329F4EE
:1008000085E090E09B838A831FC08091180184302B
:1008100049F480911701882329F486E090E09B83B6
:100820008A8312C080911801853049F480911701A4
:10083000882329F487E090E09B838A8305C088E0C1
:1008400090E09B838A8312C011C081E080931901DC
:100850008981803819F481E090E002C087E090E05F
:100860009B838A8303C01B821A8200008A819B813A
:10087000092E000CAA0BBB0B40E050E028E030E052
:10088000841B950B2817390770F1815B9F4FFC0182
:100890000C94A40585E290E0FC01108227C085E25B
:1008A00090E0FC01108222C085E290E0FC01108201
:1008B0001DC085E290E0FC01108218C085E290E046
:1008C000FC01108213C085E290E0FC0110820EC092
:1008D00085E290E0FC01108209C085E290E021E011
:1008E000FC01208303C0000001C000008A819B81BD
:1008F0000F900F900F90DF91CF9108950F931F935A
:10090000CF93DF93CDB7DEB727970FB6F894DEBF4E
:100910000FBECDBF84E290E02FE0FC01208385E292
:1009200090E020EFFC01208387E290E020EFFC01C3
:10093000208388E290E02FE0FC0120838AE191E0AF
:100940009F838E8381E090E09C838B831D828D81C9
:1009500080931A0182E390E0A0E0B0E080931B0155
:1009600090931C01A0931D01B0931E0180911B0167
:1009700090911C01A0911D01B0911E0180931F0157
:1009800090932001A0932101B093220188E093E08D
:10099000909324018093230162E370E080E090E073
:1009A0000E942A020E9458021A8219829BC08981E1
:1009B0009A81880F991F9E012F5F3F4F820F931FCF
:1009C0000596FC0180819181FC012581368147815A
:1009D000508589819A81880F991FBE016F5F7F4F73
:1009E000860F971F0596FC0180819181FC01818112
:1009F0009281A381B481281739074A075B0709F060
:100A000045C089819A81880F991F9E012F5F3F4FB2
:100A1000820F931F0596FC010081118189819A81C3
:100A2000880F991F9E012F5F3F4F820F931F0596DE
:100A3000FC0180819181FC012185328589819A8127
:100A4000880F991FAE014F5F5F4F840F951F05966A
:100A5000FC0180819181FC018081082E000C990BA2
:100A6000F9010995F801808389819A81880F991F7E
:100A70009E012F5F3F4F820F931F0596FC018081DF
:100A80009181FC01158216821782108689819A81D4
:100A9000880F991F9E012F5F3F4F820F931F05966E
:100AA000FC012081318189819A81880F991FAE01D3
:100AB0004F5F5F4F840F951F0596FC0180819181E8
:100AC000FC0185819681A781B085C296A11DB11DCB
:100AD000F90185839683A783B08789819A810196DE
:100AE0009A83898329813A818B819C8128173907D0
:100AF00008F45DCF0000809112018823E1F3109289
:100B0000120152CFA1E21A2EAA1BBB1BFD010DC080
:100B1000AA1FBB1FEE1FFF1FA217B307E407F507AD
:100B200020F0A21BB30BE40BF50B661F771F881F89
:100B3000991F1A9469F760957095809590959B011F
:100B4000AC01BD01CF010895EE0FFF1F0024001C72
:0E0B50000BBE0790F691E02D0994F894FFCFAC
:100B5E00000000020000000079000000000001000B
:020B6E00000085
:00000001FF
