:100000000C948B000C94AA000C94AA000C94AA00E7
:100010000C94AA000C94AA000C94AA000C94AA00B8
:100020000C94AA000C94AA000C94AA000C94AA00A8
:100030000C94AA000C94D9020C94AA000C94AA0067
:100040000C94AA000C94AA000C94AA000C94AA0088
:100050000C94AA000C94AA000C94AA000C94AA0078
:100060000C94AA000C94AA000C94AA000C94AA0068
:100070000C94AA000C94AA000C94AA000C94AA0058
:100080000C94AA000C94AA000C94AA006903AC0377
:10009000AC03AC03AC03AC03AC03AC03AC03AC03E8
:1000A000AC03AC03AC03AC03AC03AC03AC03AC03D8
:1000B000AC03AC03AC03AC03AC03AC03AC03AC03C8
:1000C000AC03AC03AC03AC03AC03AC03AC03AC03B8
:1000D000AC03A803AC03AC03AC03AC03AC03AC03AC
:1000E000A103AC03AC03AC03AC03AC03A5036D03E9
:1000F0007103750379037D038103850389038D03F0
:10010000AC03AC03AC03AC03AC03AC03AC03910392
:10011000950399039D0311241FBECFEFD0E4DEBFEA
:10012000CDBF11E0A0E0B1E0ECEFF9E000E00BBFE3
:1001300002C007900D92A231B107D9F721E0A2E1E8
:10014000B1E001C01D92A432B207E1F70E94CE03D4
:100150000C94FC040C940000CF93DF9300D01F920A
:10016000CDB7DEB789837B836A8389818A3031F496
:100170008A819B81BC018DE00E94AC0080EC90E004
:10018000FC018081882F90E080729927892BB1F340
:1001900086EC90E02981FC01208380E090E00F90C4
:1001A0000F900F90DF91CF910895CF93DF9300D000
:1001B0001F92CDB7DEB789836A834B838B818823F7
:1001C00071F08A81282F30E081E090E002C0880F32
:1001D000991F2A95E2F7982F8981892B0EC08A8171
:1001E000282F30E081E090E002C0880F991F2A9507
:1001F000E2F7982F9095898189230F900F900F90A7
:10020000DF91CF910895CF93DF9300D0CDB7DEB7C4
:1002100089836A838A81282F30E081E090E002C0E0
:10022000880F991F2A95E2F7982F898189230F90CB
:100230000F90DF91CF9108950F931F93CF93DF938A
:10024000CDB7DEB708E210E040E064E08FEF0E9437
:10025000D500F8018083000086E290E0FC018081F7
:10026000809560E00E940301882311F081E3D3C0F0
:1002700086E290E0FC018081809561E00E940301AC
:10028000882311F084E3C7C086E290E0FC018081FE
:10029000809562E00E940301882311F087E3BBC0D0
:1002A00086E290E0FC018081809563E00E9403017A
:1002B000882311F08AE2AFC008E210E040E065E078
:1002C0008FEF0E94D500F8018083000086E290E065
:1002D000FC018081809560E00E940301882311F079
:1002E00082E399C086E290E0FC018081809561E024
:1002F0000E940301882311F085E38DC086E290E01F
:10030000FC018081809562E00E940301882311F046
:1003100088E381C086E290E0FC018081809563E003
:100320000E940301882311F080E375C008E210E009
:1003300040E066E08FEF0E94D500F8018083000066
:1003400086E290E0FC018081809560E00E940301DC
:10035000882311F083E35FC086E290E0FC01808196
:10036000809561E00E940301882311F086E353C069
:1003700086E290E0FC018081809562E00E940301AA
:10038000882311F089E347C086E290E0FC01808178
:10039000809563E00E940301882311F083E23BC053
:1003A00008E210E040E067E08FEF0E94D500F8011E
:1003B0008083000086E290E0FC018081809560E00F
:1003C0000E940301882311F081E425C086E290E0B9
:1003D000FC018081809561E00E940301882311F077
:1003E00082E419C086E290E0FC018081809562E0A1
:1003F0000E940301882311F083E40DC086E290E09F
:10040000FC018081809563E00E940301882311F044
:1004100084E401C080E0DF91CF911F910F91089596
:10042000CF93DF93CDB7DEB72C970FB6F894DEBF2E
:100430000FBECDBF6D837E838F83988729873A87D0
:100440004B875C878D819E81AF81B88529853A85F0
:100450004B855C85BC01CD010E94D104DC01CB0140
:1004600089839A83AB83BC8389819A81AB81BC8168
:10047000892B8A2B8B2B29F489859A85AB85BC85A2
:1004800011C089859A85AB85BC858D839E83AF839A
:10049000B88789819A81AB81BC8189879A87AB872C
:1004A000BC87D0CFBC01CD012C960FB6F894DEBF2F
:1004B0000FBECDBFDF91CF910895CF93DF9300D0D2
:1004C00000D0CDB7DEB769837A838B839C83898123
:1004D0009A81AB81BC8180930E0190930F01A09310
:1004E0001001B093110180910E0190910F01A09124
:1004F0001001B09111018093130190931401A09306
:100500001501B093160100000F900F900F900F90FF
:10051000DF91CF910895CF93DF93CDB7DEB781E818
:1005200090E02BE0FC01208388E890E02DE730E0AC
:10053000FC01318320838FE690E022E0FC012083E0
:1005400084E890E0FC011182108280910E0190916C
:100550000F01A0911001B0911101809313019093AC
:100560001401A0931501B09316018FE590E02FE5DB
:1005700030E0F90120812068FC0120830000DF9138
:10058000CF910895CF93DF93CDB7DEB781E890E0A8
:10059000FC0110820000DF91CF910895CF93DF938B
:1005A000CDB7DEB781E0809312010000DF91CF91DB
:1005B00008951F920F9200905F000F9211240090F7
:1005C0005B000F922F933F934F935F936F937F93B3
:1005D0008F939F93AF93BF93EF93FF93CF93DF934B
:1005E000CDB7DEB78091130190911401A091150150
:1005F000B09116010197A109B1098093130190935D
:100600001401A0931501B0931601809113019091EC
:100610001401A0911501B0911601892B8A2B8B2B07
:1006200091F40E94CE0280910E0190910F01A09151
:100630001001B09111018093130190931401A093C4
:100640001501B09316010000DF91CF91FF91EF915A
:10065000BF91AF919F918F917F916F915F914F91DA
:100660003F912F910F9000925B000F9000925F00DE
:100670000F901F901895CF93DF9300D0CDB7DEB7C2
:100680009A83898389819A81009719F0019731F0C3
:100690006CC081E090E09A8389836AC00E941C014B
:1006A0008093230180912301882F90E0092E000C74
:1006B000AA0BBB0B40E050E024E430E0841B950B18
:1006C0002817390708F448C08A5B9F4FFC010C9437
:1006D000F3048FE18093170143C081E080931701F9
:1006E0003FC082E0809317013BC083E080931701F5
:1006F00037C084E08093170133C085E080931701F1
:100700002FC086E0809317012BC087E080931701EC
:1007100027C088E08093170123C089E080931701E8
:100720001FC08AE0809317011BC08BE080931701E4
:1007300017C08CE08093170113C08DE080931701E0
:100740000FC08EE0809317010BC01092170108C0F4
:100750008FE08093170104C08BE1809317010000A4
:1007600081E090E09A83898303C01A821982000095
:1007700089819A81009751F0019709F008C085E2BC
:1007800090E020911701FC01208301C000008981C5
:100790009A810F900F90DF91CF9108950F931F933F
:1007A000CF93DF93CDB7DEB727970FB6F894DEBFB0
:1007B0000FBECDBF84E290E02FEFFC01208385E2E5
:1007C00090E0FC01108287E290E020EFFC012083A2
:1007D00088E290E02FE0FC01208388E191E09F8394
:1007E0008E8381E090E09C838B831D828D8180933A
:1007F000180182E390E0A0E0B0E0809319019093AB
:100800001A01A0931B01B0931C01809119019091D2
:100810001A01A0911B01B0911C0180931D019093BE
:100820001E01A0931F01B09320018BE393E09093EE
:1008300022018093210162E370E080E090E00E9459
:100840005D020E948B021A8219829BC089819A8163
:10085000880F991F9E012F5F3F4F820F931F0596B0
:10086000FC0180819181FC01258136814781508581
:1008700089819A81880F991FBE016F5F7F4F860F14
:10088000971F0596FC0180819181FC0181819281F5
:10089000A381B481281739074A075B0709F045C0CF
:1008A00089819A81880F991F9E012F5F3F4F820F88
:1008B000931F0596FC010081118189819A81880F1F
:1008C000991F9E012F5F3F4F820F931F0596FC01DA
:1008D00080819181FC012185328589819A81880FEF
:1008E000991FAE014F5F5F4F840F951F0596FC0166
:1008F00080819181FC018081082E000C990BF90107
:100900000995F801808389819A81880F991F9E013A
:100910002F5F3F4F820F931F0596FC0180819181CD
:10092000FC01158216821782108689819A81880FB0
:10093000991F9E012F5F3F4F820F931F0596FC0169
:100940002081318189819A81880F991FAE014F5F83
:100950005F4F840F951F0596FC0180819181FC01FA
:1009600085819681A781B085C296A11DB11DF9012F
:1009700085839683A783B08789819A8101969A831C
:10098000898329813A818B819C812817390708F452
:100990005DCF0000809112018823E1F310921201D3
:1009A00052CFA1E21A2EAA1BBB1BFD010DC0AA1F2C
:1009B000BB1FEE1FFF1FA217B307E407F50720F0C8
:1009C000A21BB30BE40BF50B661F771F881F991F43
:1009D0001A9469F760957095809590959B01AC018C
:1009E000BD01CF010895EE0FFF1F0024001C0BBEB8
:0C09F0000790F691E02D0994F894FFCFD9
:1009FC000000000200000000AC000000000001003C
:020A0C000000E8
:00000001FF
